{
  "address": "0xe7f1725E7734CE288F8367e1Bb143E90bb3F0512",
  "abi": [
    {
      "inputs": [],
      "stateMutability": "nonpayable",
      "type": "constructor"
    },
    {
      "inputs": [],
      "name": "NFTSwapFactory__NotFeeSetter",
      "type": "error"
    },
    {
      "inputs": [],
      "name": "NFTSwapFactory__PoolAlreadyExists",
      "type": "error"
    },
    {
      "inputs": [],
      "name": "NFTSwapFactory__ZeroAddress",
      "type": "error"
    },
    {
      "anonymous": false,
      "inputs": [
        {
          "indexed": false,
          "internalType": "address",
          "name": "token0",
          "type": "address"
        },
        {
          "indexed": false,
          "internalType": "address",
          "name": "token1",
          "type": "address"
        },
        {
          "indexed": false,
          "internalType": "address",
          "name": "pool",
          "type": "address"
        }
      ],
      "name": "PoolCreated",
      "type": "event"
    },
    {
      "inputs": [
        {
          "internalType": "address",
          "name": "nftA",
          "type": "address"
        },
        {
          "internalType": "address",
          "name": "nftB",
          "type": "address"
        }
      ],
      "name": "createPool",
      "outputs": [
        {
          "internalType": "address",
          "name": "pool",
          "type": "address"
        }
      ],
      "stateMutability": "nonpayable",
      "type": "function"
    },
    {
      "inputs": [],
      "name": "getAllPools",
      "outputs": [
        {
          "internalType": "address[]",
          "name": "",
          "type": "address[]"
        }
      ],
      "stateMutability": "view",
      "type": "function"
    },
    {
      "inputs": [],
      "name": "getFeeReceiver",
      "outputs": [
        {
          "internalType": "address",
          "name": "",
          "type": "address"
        }
      ],
      "stateMutability": "view",
      "type": "function"
    },
    {
      "inputs": [],
      "name": "getFeeReceiverSetter",
      "outputs": [
        {
          "internalType": "address",
          "name": "",
          "type": "address"
        }
      ],
      "stateMutability": "view",
      "type": "function"
    },
    {
      "inputs": [
        {
          "internalType": "address",
          "name": "nft0",
          "type": "address"
        },
        {
          "internalType": "address",
          "name": "nft1",
          "type": "address"
        }
      ],
      "name": "getPool",
      "outputs": [
        {
          "internalType": "address",
          "name": "",
          "type": "address"
        }
      ],
      "stateMutability": "view",
      "type": "function"
    },
    {
      "inputs": [
        {
          "internalType": "address",
          "name": "feeReceiver",
          "type": "address"
        }
      ],
      "name": "setFeeReceiver",
      "outputs": [],
      "stateMutability": "nonpayable",
      "type": "function"
    },
    {
      "inputs": [
        {
          "internalType": "address",
          "name": "feeReceiverSetter",
          "type": "address"
        }
      ],
      "name": "setFeeReceiverSetter",
      "outputs": [],
      "stateMutability": "nonpayable",
      "type": "function"
    }
  ],
  "transactionHash": "0xf788bdb292599dde4a96c18677bd62dab43705576424acbb4ca3365e9e58f018",
  "args": [],
  "numDeployments": 1,
  "solcInputHash": "468debca680dcf0378d34d4659add940",
  "bytecode": "0x60a060405234801561001057600080fd5b503073ffffffffffffffffffffffffffffffffffffffff1660808173ffffffffffffffffffffffffffffffffffffffff1660601b81525050336000806101000a81548173ffffffffffffffffffffffffffffffffffffffff021916908373ffffffffffffffffffffffffffffffffffffffff16021790555033600160006101000a81548173ffffffffffffffffffffffffffffffffffffffff021916908373ffffffffffffffffffffffffffffffffffffffff16021790555060805160601c612e7a6100e760003960006108d00152612e7a6000f3fe608060405234801561001057600080fd5b506004361061007d5760003560e01c8063d88ff1f41161005b578063d88ff1f4146100ec578063e34336151461010a578063e8a353921461013a578063efdcd974146101585761007d565b8063055ad16814610082578063531aa03e1461009e578063a4158e01146100ce575b600080fd5b61009c60048036038101906100979190610999565b610174565b005b6100b860048036038101906100b391906109c6565b61023f565b6040516100c59190610a9a565b60405180910390f35b6100d66102e6565b6040516100e39190610a9a565b60405180910390f35b6100f4610310565b6040516101019190610aec565b60405180910390f35b610124600480360381019061011f91906109c6565b61039e565b6040516101319190610a9a565b60405180910390f35b6101426107db565b60405161014f9190610a9a565b60405180910390f35b610172600480360381019061016d9190610999565b610804565b005b600160009054906101000a900473ffffffffffffffffffffffffffffffffffffffff1673ffffffffffffffffffffffffffffffffffffffff163373ffffffffffffffffffffffffffffffffffffffff16146101fb576040517f4d3173ac00000000000000000000000000000000000000000000000000000000815260040160405180910390fd5b80600160006101000a81548173ffffffffffffffffffffffffffffffffffffffff021916908373ffffffffffffffffffffffffffffffffffffffff16021790555050565b6000600360008473ffffffffffffffffffffffffffffffffffffffff1673ffffffffffffffffffffffffffffffffffffffff16815260200190815260200160002060008373ffffffffffffffffffffffffffffffffffffffff1673ffffffffffffffffffffffffffffffffffffffff16815260200190815260200160002060009054906101000a900473ffffffffffffffffffffffffffffffffffffffff16905092915050565b6000600160009054906101000a900473ffffffffffffffffffffffffffffffffffffffff16905090565b6060600280548060200260200160405190810160405280929190818152602001828054801561039457602002820191906000526020600020905b8160009054906101000a900473ffffffffffffffffffffffffffffffffffffffff1673ffffffffffffffffffffffffffffffffffffffff168152602001906001019080831161034a575b5050505050905090565b60006103a86108ce565b6000806103b58585610928565b91509150600073ffffffffffffffffffffffffffffffffffffffff168273ffffffffffffffffffffffffffffffffffffffff161415610420576040517fd8f8fe9900000000000000000000000000000000000000000000000000000000815260040160405180910390fd5b600073ffffffffffffffffffffffffffffffffffffffff16600360008473ffffffffffffffffffffffffffffffffffffffff1673ffffffffffffffffffffffffffffffffffffffff16815260200190815260200160002060008373ffffffffffffffffffffffffffffffffffffffff1673ffffffffffffffffffffffffffffffffffffffff16815260200190815260200160002060009054906101000a900473ffffffffffffffffffffffffffffffffffffffff1673ffffffffffffffffffffffffffffffffffffffff1614610522576040517f9f3c938a00000000000000000000000000000000000000000000000000000000815260040160405180910390fd5b30828260405160200161053793929190610ab5565b6040516020818303038152906040528051906020012030838360405161055c90610977565b61056893929190610ab5565b8190604051809103906000f5905080158015610588573d6000803e3d6000fd5b5092506002839080600181540180825580915050600190039060005260206000200160009091909190916101000a81548173ffffffffffffffffffffffffffffffffffffffff021916908373ffffffffffffffffffffffffffffffffffffffff16021790555082600360008473ffffffffffffffffffffffffffffffffffffffff1673ffffffffffffffffffffffffffffffffffffffff16815260200190815260200160002060008373ffffffffffffffffffffffffffffffffffffffff1673ffffffffffffffffffffffffffffffffffffffff16815260200190815260200160002060006101000a81548173ffffffffffffffffffffffffffffffffffffffff021916908373ffffffffffffffffffffffffffffffffffffffff1602179055508073ffffffffffffffffffffffffffffffffffffffff168273ffffffffffffffffffffffffffffffffffffffff16146107985782600360008373ffffffffffffffffffffffffffffffffffffffff1673ffffffffffffffffffffffffffffffffffffffff16815260200190815260200160002060008473ffffffffffffffffffffffffffffffffffffffff1673ffffffffffffffffffffffffffffffffffffffff16815260200190815260200160002060006101000a81548173ffffffffffffffffffffffffffffffffffffffff021916908373ffffffffffffffffffffffffffffffffffffffff1602179055505b7f9c5d829b9b23efc461f9aeef91979ec04bb903feb3bee4f26d22114abfc7335b8282856040516107cb93929190610ab5565b60405180910390a1505092915050565b60008060009054906101000a900473ffffffffffffffffffffffffffffffffffffffff16905090565b600160009054906101000a900473ffffffffffffffffffffffffffffffffffffffff1673ffffffffffffffffffffffffffffffffffffffff163373ffffffffffffffffffffffffffffffffffffffff161461088b576040517f4d3173ac00000000000000000000000000000000000000000000000000000000815260040160405180910390fd5b806000806101000a81548173ffffffffffffffffffffffffffffffffffffffff021916908373ffffffffffffffffffffffffffffffffffffffff16021790555050565b7f000000000000000000000000000000000000000000000000000000000000000073ffffffffffffffffffffffffffffffffffffffff163073ffffffffffffffffffffffffffffffffffffffff161461092657600080fd5b565b6000808273ffffffffffffffffffffffffffffffffffffffff168473ffffffffffffffffffffffffffffffffffffffff1610610965578284610968565b83835b80925081935050509250929050565b6122af80610b9683390190565b60008135905061099381610b7e565b92915050565b6000602082840312156109af576109ae610b79565b5b60006109bd84828501610984565b91505092915050565b600080604083850312156109dd576109dc610b79565b5b60006109eb85828601610984565b92505060206109fc85828601610984565b9150509250929050565b6000610a128383610a1e565b60208301905092915050565b610a2781610b47565b82525050565b610a3681610b47565b82525050565b6000610a4782610b1e565b610a518185610b36565b9350610a5c83610b0e565b8060005b83811015610a8d578151610a748882610a06565b9750610a7f83610b29565b925050600181019050610a60565b5085935050505092915050565b6000602082019050610aaf6000830184610a2d565b92915050565b6000606082019050610aca6000830186610a2d565b610ad76020830185610a2d565b610ae46040830184610a2d565b949350505050565b60006020820190508181036000830152610b068184610a3c565b905092915050565b6000819050602082019050919050565b600081519050919050565b6000602082019050919050565b600082825260208201905092915050565b6000610b5282610b59565b9050919050565b600073ffffffffffffffffffffffffffffffffffffffff82169050919050565b600080fd5b610b8781610b47565b8114610b9257600080fd5b5056fe60e06040523480156200001157600080fd5b50604051620022af380380620022af8339818101604052810190620000379190620000fc565b8273ffffffffffffffffffffffffffffffffffffffff1660c08173ffffffffffffffffffffffffffffffffffffffff1660601b815250508173ffffffffffffffffffffffffffffffffffffffff1660808173ffffffffffffffffffffffffffffffffffffffff1660601b815250508073ffffffffffffffffffffffffffffffffffffffff1660a08173ffffffffffffffffffffffffffffffffffffffff1660601b81525050505050620001ab565b600081519050620000f68162000191565b92915050565b6000806000606084860312156200011857620001176200018c565b5b60006200012886828701620000e5565b93505060206200013b86828701620000e5565b92505060406200014e86828701620000e5565b9150509250925092565b600062000165826200016c565b9050919050565b600073ffffffffffffffffffffffffffffffffffffffff82169050919050565b600080fd5b6200019c8162000158565b8114620001a857600080fd5b50565b60805160601c60a05160601c60c05160601c612088620002276000396000505060008181610316015281816108e501528181610de601528181610e5b01528181610f9b015261152f0152600081816102f5015281816108c401528181610dc501528181610e3a01528181610f7a015261150e01526120886000f3fe608060405234801561001057600080fd5b506004361061009e5760003560e01c8063a351912111610066578063a351912114610143578063d54aa53214610173578063d84fc34f1461018f578063e20be69a146101ae578063f800ece9146101ca5761009e565b8063150b7a02146100a3578063259b5c88146100d357806343770847146100ef57806343bd03121461010b5780636bb508cd14610127575b600080fd5b6100bd60048036038101906100b89190611aca565b6101e8565b6040516100ca9190611f05565b60405180910390f35b6100ed60048036038101906100e89190611be5565b6101fd565b005b61010960048036038101906101049190611b52565b6105bc565b005b61012560048036038101906101209190611b52565b610934565b005b610141600480360381019061013c9190611ba5565b6109ab565b005b61015d60048036038101906101589190611ba5565b6109bb565b60405161016a9190611f20565b60405180910390f35b61018d60048036038101906101889190611b52565b610aba565b005b610197610e35565b6040516101a5929190611da0565b60405180910390f35b6101c860048036038101906101c39190611ba5565b610e82565b005b6101d26113a3565b6040516101df9190611ee3565b60405180910390f35b600063150b7a0260e01b905095945050505050565b60006001600085815260200190815260200160002060008481526020019081526020016000206040518060800160405290816000820160009054906101000a900473ffffffffffffffffffffffffffffffffffffffff1673ffffffffffffffffffffffffffffffffffffffff1673ffffffffffffffffffffffffffffffffffffffff1681526020016001820160009054906101000a900473ffffffffffffffffffffffffffffffffffffffff1673ffffffffffffffffffffffffffffffffffffffff1673ffffffffffffffffffffffffffffffffffffffff1681526020016002820154815260200160038201548152505090506000807f00000000000000000000000000000000000000000000000000000000000000007f000000000000000000000000000000000000000000000000000000000000000091509150826000015173ffffffffffffffffffffffffffffffffffffffff163373ffffffffffffffffffffffffffffffffffffffff16146103a2576040517f2670305100000000000000000000000000000000000000000000000000000000815260040160405180910390fd5b600073ffffffffffffffffffffffffffffffffffffffff168473ffffffffffffffffffffffffffffffffffffffff16148061040857508173ffffffffffffffffffffffffffffffffffffffff168473ffffffffffffffffffffffffffffffffffffffff16145b8061043e57508073ffffffffffffffffffffffffffffffffffffffff168473ffffffffffffffffffffffffffffffffffffffff16145b15610475576040517f3c5d3d1000000000000000000000000000000000000000000000000000000000815260040160405180910390fd5b8173ffffffffffffffffffffffffffffffffffffffff1663b88d4fde3086896040518463ffffffff1660e01b81526004016104b293929190611e99565b600060405180830381600087803b1580156104cc57600080fd5b505af11580156104e0573d6000803e3d6000fd5b50505050600160008781526020019081526020016000206000868152602001908152602001600020600080820160006101000a81549073ffffffffffffffffffffffffffffffffffffffff02191690556001820160006101000a81549073ffffffffffffffffffffffffffffffffffffffff02191690556002820160009055600382016000905550507fd51ba678dd8a8016f24bbe783bc87fe8d20ae0d63501bea37bcc8a0434ea334e828285600001518660200151888b8b6040516105ac9796959493929190611dc9565b60405180910390a1505050505050565b600073ffffffffffffffffffffffffffffffffffffffff168373ffffffffffffffffffffffffffffffffffffffff161415610623576040517f5b8d2b2700000000000000000000000000000000000000000000000000000000815260040160405180910390fd5b60006001600084815260200190815260200160002060008381526020019081526020016000206040518060800160405290816000820160009054906101000a900473ffffffffffffffffffffffffffffffffffffffff1673ffffffffffffffffffffffffffffffffffffffff1673ffffffffffffffffffffffffffffffffffffffff1681526020016001820160009054906101000a900473ffffffffffffffffffffffffffffffffffffffff1673ffffffffffffffffffffffffffffffffffffffff1673ffffffffffffffffffffffffffffffffffffffff168152602001600282015481526020016003820154815250509050806000015173ffffffffffffffffffffffffffffffffffffffff163373ffffffffffffffffffffffffffffffffffffffff161461077f576040517f2670305100000000000000000000000000000000000000000000000000000000815260040160405180910390fd5b60405180608001604052808573ffffffffffffffffffffffffffffffffffffffff168152602001826020015173ffffffffffffffffffffffffffffffffffffffff16815260200182604001518152602001826060015181525060016000858152602001908152602001600020600084815260200190815260200160002060008201518160000160006101000a81548173ffffffffffffffffffffffffffffffffffffffff021916908373ffffffffffffffffffffffffffffffffffffffff16021790555060208201518160010160006101000a81548173ffffffffffffffffffffffffffffffffffffffff021916908373ffffffffffffffffffffffffffffffffffffffff16021790555060408201518160020155606082015181600301559050507ff532bc9efed4d0c515e792145e7d0cc9bcee920e33cfdc8cd752a1fe6de26c0b7f00000000000000000000000000000000000000000000000000000000000000007f00000000000000000000000000000000000000000000000000000000000000008684602001518560400151866060015160405161092696959493929190611e38565b60405180910390a150505050565b600073ffffffffffffffffffffffffffffffffffffffff168373ffffffffffffffffffffffffffffffffffffffff16141561099b576040517f5b8d2b2700000000000000000000000000000000000000000000000000000000815260040160405180910390fd5b6109a6838383611416565b505050565b6109b760008383611416565b5050565b6109c36119b4565b6001600084815260200190815260200160002060008381526020019081526020016000206040518060800160405290816000820160009054906101000a900473ffffffffffffffffffffffffffffffffffffffff1673ffffffffffffffffffffffffffffffffffffffff1673ffffffffffffffffffffffffffffffffffffffff1681526020016001820160009054906101000a900473ffffffffffffffffffffffffffffffffffffffff1673ffffffffffffffffffffffffffffffffffffffff1673ffffffffffffffffffffffffffffffffffffffff16815260200160028201548152602001600382015481525050905092915050565b60006001600084815260200190815260200160002060008381526020019081526020016000206040518060800160405290816000820160009054906101000a900473ffffffffffffffffffffffffffffffffffffffff1673ffffffffffffffffffffffffffffffffffffffff1673ffffffffffffffffffffffffffffffffffffffff1681526020016001820160009054906101000a900473ffffffffffffffffffffffffffffffffffffffff1673ffffffffffffffffffffffffffffffffffffffff1673ffffffffffffffffffffffffffffffffffffffff168152602001600282015481526020016003820154815250509050806000015173ffffffffffffffffffffffffffffffffffffffff163373ffffffffffffffffffffffffffffffffffffffff1614610c16576040517f2670305100000000000000000000000000000000000000000000000000000000815260040160405180910390fd5b806000015173ffffffffffffffffffffffffffffffffffffffff168473ffffffffffffffffffffffffffffffffffffffff161415610c80576040517fb0d9083200000000000000000000000000000000000000000000000000000000815260040160405180910390fd5b6040518060800160405280826000015173ffffffffffffffffffffffffffffffffffffffff1681526020018573ffffffffffffffffffffffffffffffffffffffff16815260200182604001518152602001826060015181525060016000858152602001908152602001600020600084815260200190815260200160002060008201518160000160006101000a81548173ffffffffffffffffffffffffffffffffffffffff021916908373ffffffffffffffffffffffffffffffffffffffff16021790555060208201518160010160006101000a81548173ffffffffffffffffffffffffffffffffffffffff021916908373ffffffffffffffffffffffffffffffffffffffff16021790555060408201518160020155606082015181600301559050507fd3ef30e8cc1615032e4f5bdcde924b998bd5f3513d8643eee89b80feb4ef270f7f00000000000000000000000000000000000000000000000000000000000000007f000000000000000000000000000000000000000000000000000000000000000083600001518785604001518660600151604051610e2796959493929190611e38565b60405180910390a150505050565b6000807f00000000000000000000000000000000000000000000000000000000000000007f0000000000000000000000000000000000000000000000000000000000000000915091509091565b60006001600084815260200190815260200160002060008381526020019081526020016000206040518060800160405290816000820160009054906101000a900473ffffffffffffffffffffffffffffffffffffffff1673ffffffffffffffffffffffffffffffffffffffff1673ffffffffffffffffffffffffffffffffffffffff1681526020016001820160009054906101000a900473ffffffffffffffffffffffffffffffffffffffff1673ffffffffffffffffffffffffffffffffffffffff1673ffffffffffffffffffffffffffffffffffffffff1681526020016002820154815260200160038201548152505090506000807f00000000000000000000000000000000000000000000000000000000000000007f000000000000000000000000000000000000000000000000000000000000000091509150600073ffffffffffffffffffffffffffffffffffffffff16836000015173ffffffffffffffffffffffffffffffffffffffff161415611029576040517f237d79a300000000000000000000000000000000000000000000000000000000815260040160405180910390fd5b826000015173ffffffffffffffffffffffffffffffffffffffff163373ffffffffffffffffffffffffffffffffffffffff161415611093576040517fb0d9083200000000000000000000000000000000000000000000000000000000815260040160405180910390fd5b600073ffffffffffffffffffffffffffffffffffffffff16836020015173ffffffffffffffffffffffffffffffffffffffff16141580156111045750826020015173ffffffffffffffffffffffffffffffffffffffff163373ffffffffffffffffffffffffffffffffffffffff1614155b1561113b576040517f6ef7acc400000000000000000000000000000000000000000000000000000000815260040160405180910390fd5b8173ffffffffffffffffffffffffffffffffffffffff1663b88d4fde3033886040518463ffffffff1660e01b815260040161117893929190611e99565b600060405180830381600087803b15801561119257600080fd5b505af11580156111a6573d6000803e3d6000fd5b505050508073ffffffffffffffffffffffffffffffffffffffff1663b88d4fde338560000151876040518463ffffffff1660e01b81526004016111eb93929190611e99565b600060405180830381600087803b15801561120557600080fd5b505af1158015611219573d6000803e3d6000fd5b505050503373ffffffffffffffffffffffffffffffffffffffff1661123e8387611921565b73ffffffffffffffffffffffffffffffffffffffff161415801561129b5750826000015173ffffffffffffffffffffffffffffffffffffffff166112828286611921565b73ffffffffffffffffffffffffffffffffffffffff1614155b156112d2576040517f89956be200000000000000000000000000000000000000000000000000000000815260040160405180910390fd5b600160008681526020019081526020016000206000858152602001908152602001600020600080820160006101000a81549073ffffffffffffffffffffffffffffffffffffffff02191690556001820160006101000a81549073ffffffffffffffffffffffffffffffffffffffff02191690556002820160009055600382016000905550507f9ae6c84f444be403f63f3a126829553edc7ac75f1e4911cfff892b274a2149078282856000015133898960405161139496959493929190611e38565b60405180910390a15050505050565b60606000805480602002602001604051908101604052809291908181526020016000905b8282101561140d578382906000526020600020906002020160405180604001604052908160008201548152602001600182015481525050815260200190600101906113c7565b50505050905090565b60006001600084815260200190815260200160002060008381526020019081526020016000206040518060800160405290816000820160009054906101000a900473ffffffffffffffffffffffffffffffffffffffff1673ffffffffffffffffffffffffffffffffffffffff1673ffffffffffffffffffffffffffffffffffffffff1681526020016001820160009054906101000a900473ffffffffffffffffffffffffffffffffffffffff1673ffffffffffffffffffffffffffffffffffffffff1673ffffffffffffffffffffffffffffffffffffffff1681526020016002820154815260200160038201548152505090506000807f00000000000000000000000000000000000000000000000000000000000000007f000000000000000000000000000000000000000000000000000000000000000091509150600073ffffffffffffffffffffffffffffffffffffffff16836000015173ffffffffffffffffffffffffffffffffffffffff16146115bc576040517f70530da300000000000000000000000000000000000000000000000000000000815260040160405180910390fd5b3373ffffffffffffffffffffffffffffffffffffffff168673ffffffffffffffffffffffffffffffffffffffff16148061162157508173ffffffffffffffffffffffffffffffffffffffff168673ffffffffffffffffffffffffffffffffffffffff16145b8061165757508073ffffffffffffffffffffffffffffffffffffffff168673ffffffffffffffffffffffffffffffffffffffff16145b1561168e576040517fb0d9083200000000000000000000000000000000000000000000000000000000815260040160405180910390fd5b3373ffffffffffffffffffffffffffffffffffffffff166116af8286611921565b73ffffffffffffffffffffffffffffffffffffffff1614156116fd576040517f6342823900000000000000000000000000000000000000000000000000000000815260040160405180910390fd5b8173ffffffffffffffffffffffffffffffffffffffff1663b88d4fde3330886040518463ffffffff1660e01b815260040161173a93929190611e99565b600060405180830381600087803b15801561175457600080fd5b505af1158015611768573d6000803e3d6000fd5b50505050600060405180604001604052808781526020018681525090806001815401808255809150506001900390600052602060002090600202016000909190919091506000820151816000015560208201518160010155505060405180608001604052803373ffffffffffffffffffffffffffffffffffffffff1681526020018773ffffffffffffffffffffffffffffffffffffffff1681526020018681526020018581525060016000878152602001908152602001600020600086815260200190815260200160002060008201518160000160006101000a81548173ffffffffffffffffffffffffffffffffffffffff021916908373ffffffffffffffffffffffffffffffffffffffff16021790555060208201518160010160006101000a81548173ffffffffffffffffffffffffffffffffffffffff021916908373ffffffffffffffffffffffffffffffffffffffff16021790555060408201518160020155606082015181600301559050507fb05f50f2871f347da7fab1458a6bf06e0afe6baca6ab65815836b8430ffa07ef82823389898960405161191196959493929190611e38565b60405180910390a1505050505050565b60008273ffffffffffffffffffffffffffffffffffffffff16636352211e836040518263ffffffff1660e01b815260040161195c9190611f3b565b60206040518083038186803b15801561197457600080fd5b505afa158015611988573d6000803e3d6000fd5b505050506040513d601f19601f820116820180604052508101906119ac9190611a9d565b905092915050565b6040518060800160405280600073ffffffffffffffffffffffffffffffffffffffff168152602001600073ffffffffffffffffffffffffffffffffffffffff16815260200160008152602001600081525090565b600081359050611a1781612024565b92915050565b600081519050611a2c81612024565b92915050565b60008083601f840112611a4857611a4761200d565b5b8235905067ffffffffffffffff811115611a6557611a64612008565b5b602083019150836001820283011115611a8157611a80612012565b5b9250929050565b600081359050611a978161203b565b92915050565b600060208284031215611ab357611ab261201c565b5b6000611ac184828501611a1d565b91505092915050565b600080600080600060808688031215611ae657611ae561201c565b5b6000611af488828901611a08565b9550506020611b0588828901611a08565b9450506040611b1688828901611a88565b935050606086013567ffffffffffffffff811115611b3757611b36612017565b5b611b4388828901611a32565b92509250509295509295909350565b600080600060608486031215611b6b57611b6a61201c565b5b6000611b7986828701611a08565b9350506020611b8a86828701611a88565b9250506040611b9b86828701611a88565b9150509250925092565b60008060408385031215611bbc57611bbb61201c565b5b6000611bca85828601611a88565b9250506020611bdb85828601611a88565b9150509250929050565b600080600060608486031215611bfe57611bfd61201c565b5b6000611c0c86828701611a88565b9350506020611c1d86828701611a88565b9250506040611c2e86828701611a08565b9150509250925092565b6000611c448383611d53565b60408301905092915050565b611c5981611fa0565b82525050565b611c6881611fa0565b82525050565b6000611c7982611f66565b611c838185611f7e565b9350611c8e83611f56565b8060005b83811015611cbf578151611ca68882611c38565b9750611cb183611f71565b925050600181019050611c92565b5085935050505092915050565b611cd581611fb2565b82525050565b6000611ce8600083611f8f565b9150611cf382612021565b600082019050919050565b608082016000820151611d146000850182611c50565b506020820151611d276020850182611c50565b506040820151611d3a6040850182611d82565b506060820151611d4d6060850182611d82565b50505050565b604082016000820151611d696000850182611d82565b506020820151611d7c6020850182611d82565b50505050565b611d8b81611ffe565b82525050565b611d9a81611ffe565b82525050565b6000604082019050611db56000830185611c5f565b611dc26020830184611c5f565b9392505050565b600060e082019050611dde600083018a611c5f565b611deb6020830189611c5f565b611df86040830188611c5f565b611e056060830187611c5f565b611e126080830186611c5f565b611e1f60a0830185611d91565b611e2c60c0830184611d91565b98975050505050505050565b600060c082019050611e4d6000830189611c5f565b611e5a6020830188611c5f565b611e676040830187611c5f565b611e746060830186611c5f565b611e816080830185611d91565b611e8e60a0830184611d91565b979650505050505050565b6000608082019050611eae6000830186611c5f565b611ebb6020830185611c5f565b611ec86040830184611d91565b8181036060830152611ed981611cdb565b9050949350505050565b60006020820190508181036000830152611efd8184611c6e565b905092915050565b6000602082019050611f1a6000830184611ccc565b92915050565b6000608082019050611f356000830184611cfe565b92915050565b6000602082019050611f506000830184611d91565b92915050565b6000819050602082019050919050565b600081519050919050565b6000602082019050919050565b600082825260208201905092915050565b600082825260208201905092915050565b6000611fab82611fde565b9050919050565b60007fffffffff0000000000000000000000000000000000000000000000000000000082169050919050565b600073ffffffffffffffffffffffffffffffffffffffff82169050919050565b6000819050919050565b600080fd5b600080fd5b600080fd5b600080fd5b600080fd5b50565b61202d81611fa0565b811461203857600080fd5b50565b61204481611ffe565b811461204f57600080fd5b5056fea2646970667358221220f924bddef5e75f8b1e6e66cdd29038a8302f057d22661def971f9b5dd7836cbf64736f6c63430008070033a2646970667358221220372c3d3dbc200cfd8220dcaebad38059011c2d217b4d1ebf5e6451a3530940c364736f6c63430008070033",
  "devdoc": {
    "kind": "dev",
    "methods": {
      "getAllPools()": {
        "returns": {
          "_0": "Array of pool address"
        }
      },
      "getFeeReceiver()": {
        "details": "Can be changed by the current fee setter via setFeeReceiver()",
        "returns": {
          "_0": "The current fee receiver"
        }
      },
      "getFeeReceiverSetter()": {
        "details": "Can be changed by the current fee setter via setFeeReceiverSetter()",
        "returns": {
          "_0": "The current fee receiver setter"
        }
      },
      "setFeeReceiver(address)": {
        "details": "Can only be called by the current fee receiver setter",
        "params": {
          "feeReceiver": "The address of the new fee receiver"
        }
      },
      "setFeeReceiverSetter(address)": {
        "details": "Can only be called by the current fee receiver setter",
        "params": {
          "feeReceiverSetter": "The address of the new fee receiver setter"
        }
      }
    },
    "version": 1
  },
  "userdoc": {
    "events": {
      "PoolCreated(address,address,address)": {
        "notice": "Emitted when a pool is created"
      }
    },
    "kind": "user",
    "methods": {
      "getAllPools()": {
        "notice": "Returns all pool addresses"
      },
      "getFeeReceiver()": {
        "notice": "Returns the current fee receiver"
      },
      "getFeeReceiverSetter()": {
        "notice": "Returns the current fee receiver setter"
      },
      "setFeeReceiver(address)": {
        "notice": "Updates fee receiver"
      },
      "setFeeReceiverSetter(address)": {
        "notice": "Updates fee receiver setter"
      }
    },
    "version": 1
  },
  "storageLayout": {
    "storage": [
      {
        "astId": 1649,
        "contract": "contracts/NFTSwapFactory.sol:NFTSwapFactory",
        "label": "s_feeReceiver",
        "offset": 0,
        "slot": "0",
        "type": "t_address"
      },
      {
        "astId": 1651,
        "contract": "contracts/NFTSwapFactory.sol:NFTSwapFactory",
        "label": "s_feeReceiverSetter",
        "offset": 0,
        "slot": "1",
        "type": "t_address"
      },
      {
        "astId": 1654,
        "contract": "contracts/NFTSwapFactory.sol:NFTSwapFactory",
        "label": "s_allPools",
        "offset": 0,
        "slot": "2",
        "type": "t_array(t_address)dyn_storage"
      },
      {
        "astId": 1660,
        "contract": "contracts/NFTSwapFactory.sol:NFTSwapFactory",
        "label": "s_pool",
        "offset": 0,
        "slot": "3",
        "type": "t_mapping(t_address,t_mapping(t_address,t_address))"
      }
    ],
    "types": {
      "t_address": {
        "encoding": "inplace",
        "label": "address",
        "numberOfBytes": "20"
      },
      "t_array(t_address)dyn_storage": {
        "base": "t_address",
        "encoding": "dynamic_array",
        "label": "address[]",
        "numberOfBytes": "32"
      },
      "t_mapping(t_address,t_address)": {
        "encoding": "mapping",
        "key": "t_address",
        "label": "mapping(address => address)",
        "numberOfBytes": "32",
        "value": "t_address"
      },
      "t_mapping(t_address,t_mapping(t_address,t_address))": {
        "encoding": "mapping",
        "key": "t_address",
        "label": "mapping(address => mapping(address => address))",
        "numberOfBytes": "32",
        "value": "t_mapping(t_address,t_address)"
      }
    }
  }
}