{
  "address": "0x9Fbd6139b0B2EEF1a1EC7561Fd90c914CD5da842",
  "abi": [
    {
      "inputs": [],
      "stateMutability": "nonpayable",
      "type": "constructor"
    },
    {
      "inputs": [],
      "name": "NFTSwapFactory__NotFeeSetter",
      "type": "error"
    },
    {
      "inputs": [],
      "name": "NFTSwapFactory__PoolAlreadyExists",
      "type": "error"
    },
    {
      "inputs": [],
      "name": "NFTSwapFactory__ZeroAddress",
      "type": "error"
    },
    {
      "anonymous": false,
      "inputs": [
        {
          "indexed": false,
          "internalType": "address",
          "name": "token0",
          "type": "address"
        },
        {
          "indexed": false,
          "internalType": "address",
          "name": "token1",
          "type": "address"
        },
        {
          "indexed": false,
          "internalType": "address",
          "name": "pool",
          "type": "address"
        }
      ],
      "name": "PoolCreated",
      "type": "event"
    },
    {
      "inputs": [
        {
          "internalType": "address",
          "name": "nftA",
          "type": "address"
        },
        {
          "internalType": "address",
          "name": "nftB",
          "type": "address"
        }
      ],
      "name": "createPool",
      "outputs": [
        {
          "internalType": "address",
          "name": "pool",
          "type": "address"
        }
      ],
      "stateMutability": "nonpayable",
      "type": "function"
    },
    {
      "inputs": [],
      "name": "getAllPools",
      "outputs": [
        {
          "internalType": "address[]",
          "name": "",
          "type": "address[]"
        }
      ],
      "stateMutability": "view",
      "type": "function"
    },
    {
      "inputs": [],
      "name": "getFeeReceiver",
      "outputs": [
        {
          "internalType": "address",
          "name": "",
          "type": "address"
        }
      ],
      "stateMutability": "view",
      "type": "function"
    },
    {
      "inputs": [],
      "name": "getFeeReceiverSetter",
      "outputs": [
        {
          "internalType": "address",
          "name": "",
          "type": "address"
        }
      ],
      "stateMutability": "view",
      "type": "function"
    },
    {
      "inputs": [
        {
          "internalType": "address",
          "name": "nft0",
          "type": "address"
        },
        {
          "internalType": "address",
          "name": "nft1",
          "type": "address"
        }
      ],
      "name": "getPool",
      "outputs": [
        {
          "internalType": "address",
          "name": "",
          "type": "address"
        }
      ],
      "stateMutability": "view",
      "type": "function"
    },
    {
      "inputs": [
        {
          "internalType": "address",
          "name": "feeReceiver",
          "type": "address"
        }
      ],
      "name": "setFeeReceiver",
      "outputs": [],
      "stateMutability": "nonpayable",
      "type": "function"
    },
    {
      "inputs": [
        {
          "internalType": "address",
          "name": "feeReceiverSetter",
          "type": "address"
        }
      ],
      "name": "setFeeReceiverSetter",
      "outputs": [],
      "stateMutability": "nonpayable",
      "type": "function"
    }
  ],
  "transactionHash": "0x324161e0e116cd164f9509484c6636f922fa708d3a670031352ae681129e94e9",
  "args": [],
  "numDeployments": 2,
  "solcInputHash": "555af02689c5f7d973c0ffbf89ffd407",
  "bytecode": "0x60a060405234801561001057600080fd5b503073ffffffffffffffffffffffffffffffffffffffff1660808173ffffffffffffffffffffffffffffffffffffffff1660601b81525050336000806101000a81548173ffffffffffffffffffffffffffffffffffffffff021916908373ffffffffffffffffffffffffffffffffffffffff16021790555033600160006101000a81548173ffffffffffffffffffffffffffffffffffffffff021916908373ffffffffffffffffffffffffffffffffffffffff16021790555060805160601c612eca6100e760003960006108d00152612eca6000f3fe608060405234801561001057600080fd5b506004361061007d5760003560e01c8063d88ff1f41161005b578063d88ff1f4146100ec578063e34336151461010a578063e8a353921461013a578063efdcd974146101585761007d565b8063055ad16814610082578063531aa03e1461009e578063a4158e01146100ce575b600080fd5b61009c60048036038101906100979190610999565b610174565b005b6100b860048036038101906100b391906109c6565b61023f565b6040516100c59190610a9a565b60405180910390f35b6100d66102e6565b6040516100e39190610a9a565b60405180910390f35b6100f4610310565b6040516101019190610aec565b60405180910390f35b610124600480360381019061011f91906109c6565b61039e565b6040516101319190610a9a565b60405180910390f35b6101426107db565b60405161014f9190610a9a565b60405180910390f35b610172600480360381019061016d9190610999565b610804565b005b600160009054906101000a900473ffffffffffffffffffffffffffffffffffffffff1673ffffffffffffffffffffffffffffffffffffffff163373ffffffffffffffffffffffffffffffffffffffff16146101fb576040517f4d3173ac00000000000000000000000000000000000000000000000000000000815260040160405180910390fd5b80600160006101000a81548173ffffffffffffffffffffffffffffffffffffffff021916908373ffffffffffffffffffffffffffffffffffffffff16021790555050565b6000600360008473ffffffffffffffffffffffffffffffffffffffff1673ffffffffffffffffffffffffffffffffffffffff16815260200190815260200160002060008373ffffffffffffffffffffffffffffffffffffffff1673ffffffffffffffffffffffffffffffffffffffff16815260200190815260200160002060009054906101000a900473ffffffffffffffffffffffffffffffffffffffff16905092915050565b6000600160009054906101000a900473ffffffffffffffffffffffffffffffffffffffff16905090565b6060600280548060200260200160405190810160405280929190818152602001828054801561039457602002820191906000526020600020905b8160009054906101000a900473ffffffffffffffffffffffffffffffffffffffff1673ffffffffffffffffffffffffffffffffffffffff168152602001906001019080831161034a575b5050505050905090565b60006103a86108ce565b6000806103b58585610928565b91509150600073ffffffffffffffffffffffffffffffffffffffff168273ffffffffffffffffffffffffffffffffffffffff161415610420576040517fd8f8fe9900000000000000000000000000000000000000000000000000000000815260040160405180910390fd5b600073ffffffffffffffffffffffffffffffffffffffff16600360008473ffffffffffffffffffffffffffffffffffffffff1673ffffffffffffffffffffffffffffffffffffffff16815260200190815260200160002060008373ffffffffffffffffffffffffffffffffffffffff1673ffffffffffffffffffffffffffffffffffffffff16815260200190815260200160002060009054906101000a900473ffffffffffffffffffffffffffffffffffffffff1673ffffffffffffffffffffffffffffffffffffffff1614610522576040517f9f3c938a00000000000000000000000000000000000000000000000000000000815260040160405180910390fd5b30828260405160200161053793929190610ab5565b6040516020818303038152906040528051906020012030838360405161055c90610977565b61056893929190610ab5565b8190604051809103906000f5905080158015610588573d6000803e3d6000fd5b5092506002839080600181540180825580915050600190039060005260206000200160009091909190916101000a81548173ffffffffffffffffffffffffffffffffffffffff021916908373ffffffffffffffffffffffffffffffffffffffff16021790555082600360008473ffffffffffffffffffffffffffffffffffffffff1673ffffffffffffffffffffffffffffffffffffffff16815260200190815260200160002060008373ffffffffffffffffffffffffffffffffffffffff1673ffffffffffffffffffffffffffffffffffffffff16815260200190815260200160002060006101000a81548173ffffffffffffffffffffffffffffffffffffffff021916908373ffffffffffffffffffffffffffffffffffffffff1602179055508073ffffffffffffffffffffffffffffffffffffffff168273ffffffffffffffffffffffffffffffffffffffff16146107985782600360008373ffffffffffffffffffffffffffffffffffffffff1673ffffffffffffffffffffffffffffffffffffffff16815260200190815260200160002060008473ffffffffffffffffffffffffffffffffffffffff1673ffffffffffffffffffffffffffffffffffffffff16815260200190815260200160002060006101000a81548173ffffffffffffffffffffffffffffffffffffffff021916908373ffffffffffffffffffffffffffffffffffffffff1602179055505b7f9c5d829b9b23efc461f9aeef91979ec04bb903feb3bee4f26d22114abfc7335b8282856040516107cb93929190610ab5565b60405180910390a1505092915050565b60008060009054906101000a900473ffffffffffffffffffffffffffffffffffffffff16905090565b600160009054906101000a900473ffffffffffffffffffffffffffffffffffffffff1673ffffffffffffffffffffffffffffffffffffffff163373ffffffffffffffffffffffffffffffffffffffff161461088b576040517f4d3173ac00000000000000000000000000000000000000000000000000000000815260040160405180910390fd5b806000806101000a81548173ffffffffffffffffffffffffffffffffffffffff021916908373ffffffffffffffffffffffffffffffffffffffff16021790555050565b7f000000000000000000000000000000000000000000000000000000000000000073ffffffffffffffffffffffffffffffffffffffff163073ffffffffffffffffffffffffffffffffffffffff161461092657600080fd5b565b6000808273ffffffffffffffffffffffffffffffffffffffff168473ffffffffffffffffffffffffffffffffffffffff1610610965578284610968565b83835b80925081935050509250929050565b6122ff80610b9683390190565b60008135905061099381610b7e565b92915050565b6000602082840312156109af576109ae610b79565b5b60006109bd84828501610984565b91505092915050565b600080604083850312156109dd576109dc610b79565b5b60006109eb85828601610984565b92505060206109fc85828601610984565b9150509250929050565b6000610a128383610a1e565b60208301905092915050565b610a2781610b47565b82525050565b610a3681610b47565b82525050565b6000610a4782610b1e565b610a518185610b36565b9350610a5c83610b0e565b8060005b83811015610a8d578151610a748882610a06565b9750610a7f83610b29565b925050600181019050610a60565b5085935050505092915050565b6000602082019050610aaf6000830184610a2d565b92915050565b6000606082019050610aca6000830186610a2d565b610ad76020830185610a2d565b610ae46040830184610a2d565b949350505050565b60006020820190508181036000830152610b068184610a3c565b905092915050565b6000819050602082019050919050565b600081519050919050565b6000602082019050919050565b600082825260208201905092915050565b6000610b5282610b59565b9050919050565b600073ffffffffffffffffffffffffffffffffffffffff82169050919050565b600080fd5b610b8781610b47565b8114610b9257600080fd5b5056fe60e060405260016000553480156200001657600080fd5b50604051620022ff380380620022ff83398181016040528101906200003c919062000101565b8273ffffffffffffffffffffffffffffffffffffffff1660c08173ffffffffffffffffffffffffffffffffffffffff1660601b815250508173ffffffffffffffffffffffffffffffffffffffff1660808173ffffffffffffffffffffffffffffffffffffffff1660601b815250508073ffffffffffffffffffffffffffffffffffffffff1660a08173ffffffffffffffffffffffffffffffffffffffff1660601b81525050505050620001b0565b600081519050620000fb8162000196565b92915050565b6000806000606084860312156200011d576200011c62000191565b5b60006200012d86828701620000ea565b93505060206200014086828701620000ea565b92505060406200015386828701620000ea565b9150509250925092565b60006200016a8262000171565b9050919050565b600073ffffffffffffffffffffffffffffffffffffffff82169050919050565b600080fd5b620001a1816200015d565b8114620001ad57600080fd5b50565b60805160601c60a05160601c60c05160601c6120d36200022c6000396000505060008181610316015281816108e501528181610de601528181610e5b01528181610fde015261157a0152600081816102f5015281816108c401528181610dc501528181610e3a01528181610fbd015261155901526120d36000f3fe608060405234801561001057600080fd5b506004361061009e5760003560e01c8063a351912111610066578063a351912114610143578063d54aa53214610173578063d84fc34f1461018f578063e20be69a146101ae578063f800ece9146101ca5761009e565b8063150b7a02146100a3578063259b5c88146100d357806343770847146100ef57806343bd03121461010b5780636bb508cd14610127575b600080fd5b6100bd60048036038101906100b89190611b15565b6101e8565b6040516100ca9190611f50565b60405180910390f35b6100ed60048036038101906100e89190611c30565b6101fd565b005b61010960048036038101906101049190611b9d565b6105bc565b005b61012560048036038101906101209190611b9d565b610934565b005b610141600480360381019061013c9190611bf0565b6109ab565b005b61015d60048036038101906101589190611bf0565b6109bb565b60405161016a9190611f6b565b60405180910390f35b61018d60048036038101906101889190611b9d565b610aba565b005b610197610e35565b6040516101a5929190611deb565b60405180910390f35b6101c860048036038101906101c39190611bf0565b610e82565b005b6101d26113ee565b6040516101df9190611f2e565b60405180910390f35b600063150b7a0260e01b905095945050505050565b60006002600085815260200190815260200160002060008481526020019081526020016000206040518060800160405290816000820160009054906101000a900473ffffffffffffffffffffffffffffffffffffffff1673ffffffffffffffffffffffffffffffffffffffff1673ffffffffffffffffffffffffffffffffffffffff1681526020016001820160009054906101000a900473ffffffffffffffffffffffffffffffffffffffff1673ffffffffffffffffffffffffffffffffffffffff1673ffffffffffffffffffffffffffffffffffffffff1681526020016002820154815260200160038201548152505090506000807f00000000000000000000000000000000000000000000000000000000000000007f000000000000000000000000000000000000000000000000000000000000000091509150826000015173ffffffffffffffffffffffffffffffffffffffff163373ffffffffffffffffffffffffffffffffffffffff16146103a2576040517f2670305100000000000000000000000000000000000000000000000000000000815260040160405180910390fd5b600073ffffffffffffffffffffffffffffffffffffffff168473ffffffffffffffffffffffffffffffffffffffff16148061040857508173ffffffffffffffffffffffffffffffffffffffff168473ffffffffffffffffffffffffffffffffffffffff16145b8061043e57508073ffffffffffffffffffffffffffffffffffffffff168473ffffffffffffffffffffffffffffffffffffffff16145b15610475576040517f3c5d3d1000000000000000000000000000000000000000000000000000000000815260040160405180910390fd5b8173ffffffffffffffffffffffffffffffffffffffff1663b88d4fde3086896040518463ffffffff1660e01b81526004016104b293929190611ee4565b600060405180830381600087803b1580156104cc57600080fd5b505af11580156104e0573d6000803e3d6000fd5b50505050600260008781526020019081526020016000206000868152602001908152602001600020600080820160006101000a81549073ffffffffffffffffffffffffffffffffffffffff02191690556001820160006101000a81549073ffffffffffffffffffffffffffffffffffffffff02191690556002820160009055600382016000905550507fd51ba678dd8a8016f24bbe783bc87fe8d20ae0d63501bea37bcc8a0434ea334e828285600001518660200151888b8b6040516105ac9796959493929190611e14565b60405180910390a1505050505050565b600073ffffffffffffffffffffffffffffffffffffffff168373ffffffffffffffffffffffffffffffffffffffff161415610623576040517f5b8d2b2700000000000000000000000000000000000000000000000000000000815260040160405180910390fd5b60006002600084815260200190815260200160002060008381526020019081526020016000206040518060800160405290816000820160009054906101000a900473ffffffffffffffffffffffffffffffffffffffff1673ffffffffffffffffffffffffffffffffffffffff1673ffffffffffffffffffffffffffffffffffffffff1681526020016001820160009054906101000a900473ffffffffffffffffffffffffffffffffffffffff1673ffffffffffffffffffffffffffffffffffffffff1673ffffffffffffffffffffffffffffffffffffffff168152602001600282015481526020016003820154815250509050806000015173ffffffffffffffffffffffffffffffffffffffff163373ffffffffffffffffffffffffffffffffffffffff161461077f576040517f2670305100000000000000000000000000000000000000000000000000000000815260040160405180910390fd5b60405180608001604052808573ffffffffffffffffffffffffffffffffffffffff168152602001826020015173ffffffffffffffffffffffffffffffffffffffff16815260200182604001518152602001826060015181525060026000858152602001908152602001600020600084815260200190815260200160002060008201518160000160006101000a81548173ffffffffffffffffffffffffffffffffffffffff021916908373ffffffffffffffffffffffffffffffffffffffff16021790555060208201518160010160006101000a81548173ffffffffffffffffffffffffffffffffffffffff021916908373ffffffffffffffffffffffffffffffffffffffff16021790555060408201518160020155606082015181600301559050507ff532bc9efed4d0c515e792145e7d0cc9bcee920e33cfdc8cd752a1fe6de26c0b7f00000000000000000000000000000000000000000000000000000000000000007f00000000000000000000000000000000000000000000000000000000000000008684602001518560400151866060015160405161092696959493929190611e83565b60405180910390a150505050565b600073ffffffffffffffffffffffffffffffffffffffff168373ffffffffffffffffffffffffffffffffffffffff16141561099b576040517f5b8d2b2700000000000000000000000000000000000000000000000000000000815260040160405180910390fd5b6109a6838383611461565b505050565b6109b760008383611461565b5050565b6109c36119ff565b6002600084815260200190815260200160002060008381526020019081526020016000206040518060800160405290816000820160009054906101000a900473ffffffffffffffffffffffffffffffffffffffff1673ffffffffffffffffffffffffffffffffffffffff1673ffffffffffffffffffffffffffffffffffffffff1681526020016001820160009054906101000a900473ffffffffffffffffffffffffffffffffffffffff1673ffffffffffffffffffffffffffffffffffffffff1673ffffffffffffffffffffffffffffffffffffffff16815260200160028201548152602001600382015481525050905092915050565b60006002600084815260200190815260200160002060008381526020019081526020016000206040518060800160405290816000820160009054906101000a900473ffffffffffffffffffffffffffffffffffffffff1673ffffffffffffffffffffffffffffffffffffffff1673ffffffffffffffffffffffffffffffffffffffff1681526020016001820160009054906101000a900473ffffffffffffffffffffffffffffffffffffffff1673ffffffffffffffffffffffffffffffffffffffff1673ffffffffffffffffffffffffffffffffffffffff168152602001600282015481526020016003820154815250509050806000015173ffffffffffffffffffffffffffffffffffffffff163373ffffffffffffffffffffffffffffffffffffffff1614610c16576040517f2670305100000000000000000000000000000000000000000000000000000000815260040160405180910390fd5b806000015173ffffffffffffffffffffffffffffffffffffffff168473ffffffffffffffffffffffffffffffffffffffff161415610c80576040517fb0d9083200000000000000000000000000000000000000000000000000000000815260040160405180910390fd5b6040518060800160405280826000015173ffffffffffffffffffffffffffffffffffffffff1681526020018573ffffffffffffffffffffffffffffffffffffffff16815260200182604001518152602001826060015181525060026000858152602001908152602001600020600084815260200190815260200160002060008201518160000160006101000a81548173ffffffffffffffffffffffffffffffffffffffff021916908373ffffffffffffffffffffffffffffffffffffffff16021790555060208201518160010160006101000a81548173ffffffffffffffffffffffffffffffffffffffff021916908373ffffffffffffffffffffffffffffffffffffffff16021790555060408201518160020155606082015181600301559050507fd3ef30e8cc1615032e4f5bdcde924b998bd5f3513d8643eee89b80feb4ef270f7f00000000000000000000000000000000000000000000000000000000000000007f000000000000000000000000000000000000000000000000000000000000000083600001518785604001518660600151604051610e2796959493929190611e83565b60405180910390a150505050565b6000807f00000000000000000000000000000000000000000000000000000000000000007f0000000000000000000000000000000000000000000000000000000000000000915091509091565b600080541415610ebe576040517fe81f4d3900000000000000000000000000000000000000000000000000000000815260040160405180910390fd5b6000808190555060006002600084815260200190815260200160002060008381526020019081526020016000206040518060800160405290816000820160009054906101000a900473ffffffffffffffffffffffffffffffffffffffff1673ffffffffffffffffffffffffffffffffffffffff1673ffffffffffffffffffffffffffffffffffffffff1681526020016001820160009054906101000a900473ffffffffffffffffffffffffffffffffffffffff1673ffffffffffffffffffffffffffffffffffffffff1673ffffffffffffffffffffffffffffffffffffffff1681526020016002820154815260200160038201548152505090506000807f00000000000000000000000000000000000000000000000000000000000000007f000000000000000000000000000000000000000000000000000000000000000091509150600073ffffffffffffffffffffffffffffffffffffffff16836000015173ffffffffffffffffffffffffffffffffffffffff16141561106c576040517f237d79a300000000000000000000000000000000000000000000000000000000815260040160405180910390fd5b826000015173ffffffffffffffffffffffffffffffffffffffff163373ffffffffffffffffffffffffffffffffffffffff1614156110d6576040517fb0d9083200000000000000000000000000000000000000000000000000000000815260040160405180910390fd5b600073ffffffffffffffffffffffffffffffffffffffff16836020015173ffffffffffffffffffffffffffffffffffffffff16141580156111475750826020015173ffffffffffffffffffffffffffffffffffffffff163373ffffffffffffffffffffffffffffffffffffffff1614155b1561117e576040517f6ef7acc400000000000000000000000000000000000000000000000000000000815260040160405180910390fd5b8173ffffffffffffffffffffffffffffffffffffffff1663b88d4fde3033886040518463ffffffff1660e01b81526004016111bb93929190611ee4565b600060405180830381600087803b1580156111d557600080fd5b505af11580156111e9573d6000803e3d6000fd5b505050508073ffffffffffffffffffffffffffffffffffffffff1663b88d4fde338560000151876040518463ffffffff1660e01b815260040161122e93929190611ee4565b600060405180830381600087803b15801561124857600080fd5b505af115801561125c573d6000803e3d6000fd5b505050503373ffffffffffffffffffffffffffffffffffffffff16611281838761196c565b73ffffffffffffffffffffffffffffffffffffffff16141580156112de5750826000015173ffffffffffffffffffffffffffffffffffffffff166112c5828661196c565b73ffffffffffffffffffffffffffffffffffffffff1614155b15611315576040517f89956be200000000000000000000000000000000000000000000000000000000815260040160405180910390fd5b600260008681526020019081526020016000206000858152602001908152602001600020600080820160006101000a81549073ffffffffffffffffffffffffffffffffffffffff02191690556001820160006101000a81549073ffffffffffffffffffffffffffffffffffffffff02191690556002820160009055600382016000905550507f9ae6c84f444be403f63f3a126829553edc7ac75f1e4911cfff892b274a214907828285600001513389896040516113d796959493929190611e83565b60405180910390a150505060016000819055505050565b60606001805480602002602001604051908101604052809291908181526020016000905b8282101561145857838290600052602060002090600202016040518060400160405290816000820154815260200160018201548152505081526020019060010190611412565b50505050905090565b60006002600084815260200190815260200160002060008381526020019081526020016000206040518060800160405290816000820160009054906101000a900473ffffffffffffffffffffffffffffffffffffffff1673ffffffffffffffffffffffffffffffffffffffff1673ffffffffffffffffffffffffffffffffffffffff1681526020016001820160009054906101000a900473ffffffffffffffffffffffffffffffffffffffff1673ffffffffffffffffffffffffffffffffffffffff1673ffffffffffffffffffffffffffffffffffffffff1681526020016002820154815260200160038201548152505090506000807f00000000000000000000000000000000000000000000000000000000000000007f000000000000000000000000000000000000000000000000000000000000000091509150600073ffffffffffffffffffffffffffffffffffffffff16836000015173ffffffffffffffffffffffffffffffffffffffff1614611607576040517f70530da300000000000000000000000000000000000000000000000000000000815260040160405180910390fd5b3373ffffffffffffffffffffffffffffffffffffffff168673ffffffffffffffffffffffffffffffffffffffff16148061166c57508173ffffffffffffffffffffffffffffffffffffffff168673ffffffffffffffffffffffffffffffffffffffff16145b806116a257508073ffffffffffffffffffffffffffffffffffffffff168673ffffffffffffffffffffffffffffffffffffffff16145b156116d9576040517fb0d9083200000000000000000000000000000000000000000000000000000000815260040160405180910390fd5b3373ffffffffffffffffffffffffffffffffffffffff166116fa828661196c565b73ffffffffffffffffffffffffffffffffffffffff161415611748576040517f6342823900000000000000000000000000000000000000000000000000000000815260040160405180910390fd5b8173ffffffffffffffffffffffffffffffffffffffff1663b88d4fde3330886040518463ffffffff1660e01b815260040161178593929190611ee4565b600060405180830381600087803b15801561179f57600080fd5b505af11580156117b3573d6000803e3d6000fd5b50505050600160405180604001604052808781526020018681525090806001815401808255809150506001900390600052602060002090600202016000909190919091506000820151816000015560208201518160010155505060405180608001604052803373ffffffffffffffffffffffffffffffffffffffff1681526020018773ffffffffffffffffffffffffffffffffffffffff1681526020018681526020018581525060026000878152602001908152602001600020600086815260200190815260200160002060008201518160000160006101000a81548173ffffffffffffffffffffffffffffffffffffffff021916908373ffffffffffffffffffffffffffffffffffffffff16021790555060208201518160010160006101000a81548173ffffffffffffffffffffffffffffffffffffffff021916908373ffffffffffffffffffffffffffffffffffffffff16021790555060408201518160020155606082015181600301559050507fb05f50f2871f347da7fab1458a6bf06e0afe6baca6ab65815836b8430ffa07ef82823389898960405161195c96959493929190611e83565b60405180910390a1505050505050565b60008273ffffffffffffffffffffffffffffffffffffffff16636352211e836040518263ffffffff1660e01b81526004016119a79190611f86565b60206040518083038186803b1580156119bf57600080fd5b505afa1580156119d3573d6000803e3d6000fd5b505050506040513d601f19601f820116820180604052508101906119f79190611ae8565b905092915050565b6040518060800160405280600073ffffffffffffffffffffffffffffffffffffffff168152602001600073ffffffffffffffffffffffffffffffffffffffff16815260200160008152602001600081525090565b600081359050611a628161206f565b92915050565b600081519050611a778161206f565b92915050565b60008083601f840112611a9357611a92612058565b5b8235905067ffffffffffffffff811115611ab057611aaf612053565b5b602083019150836001820283011115611acc57611acb61205d565b5b9250929050565b600081359050611ae281612086565b92915050565b600060208284031215611afe57611afd612067565b5b6000611b0c84828501611a68565b91505092915050565b600080600080600060808688031215611b3157611b30612067565b5b6000611b3f88828901611a53565b9550506020611b5088828901611a53565b9450506040611b6188828901611ad3565b935050606086013567ffffffffffffffff811115611b8257611b81612062565b5b611b8e88828901611a7d565b92509250509295509295909350565b600080600060608486031215611bb657611bb5612067565b5b6000611bc486828701611a53565b9350506020611bd586828701611ad3565b9250506040611be686828701611ad3565b9150509250925092565b60008060408385031215611c0757611c06612067565b5b6000611c1585828601611ad3565b9250506020611c2685828601611ad3565b9150509250929050565b600080600060608486031215611c4957611c48612067565b5b6000611c5786828701611ad3565b9350506020611c6886828701611ad3565b9250506040611c7986828701611a53565b9150509250925092565b6000611c8f8383611d9e565b60408301905092915050565b611ca481611feb565b82525050565b611cb381611feb565b82525050565b6000611cc482611fb1565b611cce8185611fc9565b9350611cd983611fa1565b8060005b83811015611d0a578151611cf18882611c83565b9750611cfc83611fbc565b925050600181019050611cdd565b5085935050505092915050565b611d2081611ffd565b82525050565b6000611d33600083611fda565b9150611d3e8261206c565b600082019050919050565b608082016000820151611d5f6000850182611c9b565b506020820151611d726020850182611c9b565b506040820151611d856040850182611dcd565b506060820151611d986060850182611dcd565b50505050565b604082016000820151611db46000850182611dcd565b506020820151611dc76020850182611dcd565b50505050565b611dd681612049565b82525050565b611de581612049565b82525050565b6000604082019050611e006000830185611caa565b611e0d6020830184611caa565b9392505050565b600060e082019050611e29600083018a611caa565b611e366020830189611caa565b611e436040830188611caa565b611e506060830187611caa565b611e5d6080830186611caa565b611e6a60a0830185611ddc565b611e7760c0830184611ddc565b98975050505050505050565b600060c082019050611e986000830189611caa565b611ea56020830188611caa565b611eb26040830187611caa565b611ebf6060830186611caa565b611ecc6080830185611ddc565b611ed960a0830184611ddc565b979650505050505050565b6000608082019050611ef96000830186611caa565b611f066020830185611caa565b611f136040830184611ddc565b8181036060830152611f2481611d26565b9050949350505050565b60006020820190508181036000830152611f488184611cb9565b905092915050565b6000602082019050611f656000830184611d17565b92915050565b6000608082019050611f806000830184611d49565b92915050565b6000602082019050611f9b6000830184611ddc565b92915050565b6000819050602082019050919050565b600081519050919050565b6000602082019050919050565b600082825260208201905092915050565b600082825260208201905092915050565b6000611ff682612029565b9050919050565b60007fffffffff0000000000000000000000000000000000000000000000000000000082169050919050565b600073ffffffffffffffffffffffffffffffffffffffff82169050919050565b6000819050919050565b600080fd5b600080fd5b600080fd5b600080fd5b600080fd5b50565b61207881611feb565b811461208357600080fd5b50565b61208f81612049565b811461209a57600080fd5b5056fea2646970667358221220c9dc09a2242840991e1e939af26188c199822090bccfa8098844c5a9ab3aa02564736f6c63430008070033a264697066735822122068168b69d09b824373721c5a4c4930a2450241959d510a1e1efbb7ff6c6f293664736f6c63430008070033",
  "devdoc": {
    "kind": "dev",
    "methods": {
      "getAllPools()": {
        "returns": {
          "_0": "Array of pool address"
        }
      },
      "getFeeReceiver()": {
        "details": "Can be changed by the current fee setter via setFeeReceiver()",
        "returns": {
          "_0": "The current fee receiver"
        }
      },
      "getFeeReceiverSetter()": {
        "details": "Can be changed by the current fee setter via setFeeReceiverSetter()",
        "returns": {
          "_0": "The current fee receiver setter"
        }
      },
      "setFeeReceiver(address)": {
        "details": "Can only be called by the current fee receiver setter",
        "params": {
          "feeReceiver": "The address of the new fee receiver"
        }
      },
      "setFeeReceiverSetter(address)": {
        "details": "Can only be called by the current fee receiver setter",
        "params": {
          "feeReceiverSetter": "The address of the new fee receiver setter"
        }
      }
    },
    "version": 1
  },
  "userdoc": {
    "events": {
      "PoolCreated(address,address,address)": {
        "notice": "Emitted when a pool is created"
      }
    },
    "kind": "user",
    "methods": {
      "getAllPools()": {
        "notice": "Returns all pool addresses"
      },
      "getFeeReceiver()": {
        "notice": "Returns the current fee receiver"
      },
      "getFeeReceiverSetter()": {
        "notice": "Returns the current fee receiver setter"
      },
      "setFeeReceiver(address)": {
        "notice": "Updates fee receiver"
      },
      "setFeeReceiverSetter(address)": {
        "notice": "Updates fee receiver setter"
      }
    },
    "version": 1
  },
  "storageLayout": {
    "storage": [
      {
        "astId": 148,
        "contract": "contracts/NFTSwapFactory.sol:NFTSwapFactory",
        "label": "s_feeReceiver",
        "offset": 0,
        "slot": "0",
        "type": "t_address"
      },
      {
        "astId": 150,
        "contract": "contracts/NFTSwapFactory.sol:NFTSwapFactory",
        "label": "s_feeReceiverSetter",
        "offset": 0,
        "slot": "1",
        "type": "t_address"
      },
      {
        "astId": 153,
        "contract": "contracts/NFTSwapFactory.sol:NFTSwapFactory",
        "label": "s_allPools",
        "offset": 0,
        "slot": "2",
        "type": "t_array(t_address)dyn_storage"
      },
      {
        "astId": 159,
        "contract": "contracts/NFTSwapFactory.sol:NFTSwapFactory",
        "label": "s_pool",
        "offset": 0,
        "slot": "3",
        "type": "t_mapping(t_address,t_mapping(t_address,t_address))"
      }
    ],
    "types": {
      "t_address": {
        "encoding": "inplace",
        "label": "address",
        "numberOfBytes": "20"
      },
      "t_array(t_address)dyn_storage": {
        "base": "t_address",
        "encoding": "dynamic_array",
        "label": "address[]",
        "numberOfBytes": "32"
      },
      "t_mapping(t_address,t_address)": {
        "encoding": "mapping",
        "key": "t_address",
        "label": "mapping(address => address)",
        "numberOfBytes": "32",
        "value": "t_address"
      },
      "t_mapping(t_address,t_mapping(t_address,t_address))": {
        "encoding": "mapping",
        "key": "t_address",
        "label": "mapping(address => mapping(address => address))",
        "numberOfBytes": "32",
        "value": "t_mapping(t_address,t_address)"
      }
    }
  }
}