{
  "address": "0x528ce0ad8394018aa31ffec6e9c63fdec770905c",
  "abi": [
    {
      "inputs": [],
      "name": "NFTSwap__AlreadyOwnedToken",
      "type": "error"
    },
    {
      "inputs": [],
      "name": "NFTSwap__ExchangeExists",
      "type": "error"
    },
    {
      "inputs": [],
      "name": "NFTSwap__InvalidRecipient",
      "type": "error"
    },
    {
      "inputs": [],
      "name": "NFTSwap__InvalidTokenReceiver",
      "type": "error"
    },
    {
      "inputs": [],
      "name": "NFTSwap__InvalidTrader",
      "type": "error"
    },
    {
      "inputs": [],
      "name": "NFTSwap__Locked",
      "type": "error"
    },
    {
      "inputs": [],
      "name": "NFTSwap__NonexistentExchange",
      "type": "error"
    },
    {
      "inputs": [],
      "name": "NFTSwap__NotOwner",
      "type": "error"
    },
    {
      "inputs": [],
      "name": "NFTSwap__TransferFromFailed",
      "type": "error"
    },
    {
      "inputs": [],
      "name": "NFTSwap__ZeroAddress",
      "type": "error"
    },
    {
      "anonymous": false,
      "inputs": [
        {
          "indexed": false,
          "internalType": "address",
          "name": "nft0",
          "type": "address"
        },
        {
          "indexed": false,
          "internalType": "address",
          "name": "nft1",
          "type": "address"
        },
        {
          "indexed": false,
          "internalType": "address",
          "name": "owner",
          "type": "address"
        },
        {
          "indexed": false,
          "internalType": "address",
          "name": "trader",
          "type": "address"
        },
        {
          "indexed": false,
          "internalType": "address",
          "name": "receiver",
          "type": "address"
        },
        {
          "indexed": false,
          "internalType": "uint256",
          "name": "tokenId0",
          "type": "uint256"
        },
        {
          "indexed": false,
          "internalType": "uint256",
          "name": "tokenId1",
          "type": "uint256"
        }
      ],
      "name": "ExchangeCancelled",
      "type": "event"
    },
    {
      "anonymous": false,
      "inputs": [
        {
          "indexed": false,
          "internalType": "address",
          "name": "nft0",
          "type": "address"
        },
        {
          "indexed": false,
          "internalType": "address",
          "name": "nft1",
          "type": "address"
        },
        {
          "indexed": false,
          "internalType": "address",
          "name": "owner",
          "type": "address"
        },
        {
          "indexed": false,
          "internalType": "address",
          "name": "trader",
          "type": "address"
        },
        {
          "indexed": false,
          "internalType": "uint256",
          "name": "tokenId0",
          "type": "uint256"
        },
        {
          "indexed": false,
          "internalType": "uint256",
          "name": "tokenId1",
          "type": "uint256"
        }
      ],
      "name": "ExchangeCreated",
      "type": "event"
    },
    {
      "anonymous": false,
      "inputs": [
        {
          "indexed": false,
          "internalType": "address",
          "name": "nft0",
          "type": "address"
        },
        {
          "indexed": false,
          "internalType": "address",
          "name": "nft1",
          "type": "address"
        },
        {
          "indexed": false,
          "internalType": "address",
          "name": "newOwner",
          "type": "address"
        },
        {
          "indexed": false,
          "internalType": "address",
          "name": "trader",
          "type": "address"
        },
        {
          "indexed": false,
          "internalType": "uint256",
          "name": "tokenId0",
          "type": "uint256"
        },
        {
          "indexed": false,
          "internalType": "uint256",
          "name": "tokenId1",
          "type": "uint256"
        }
      ],
      "name": "ExchangeOwnerUpdated",
      "type": "event"
    },
    {
      "anonymous": false,
      "inputs": [
        {
          "indexed": false,
          "internalType": "address",
          "name": "nft0",
          "type": "address"
        },
        {
          "indexed": false,
          "internalType": "address",
          "name": "nft1",
          "type": "address"
        },
        {
          "indexed": false,
          "internalType": "address",
          "name": "owner",
          "type": "address"
        },
        {
          "indexed": false,
          "internalType": "address",
          "name": "newTrader",
          "type": "address"
        },
        {
          "indexed": false,
          "internalType": "uint256",
          "name": "tokenId0",
          "type": "uint256"
        },
        {
          "indexed": false,
          "internalType": "uint256",
          "name": "tokenId1",
          "type": "uint256"
        }
      ],
      "name": "ExchangeTraderUpdated",
      "type": "event"
    },
    {
      "anonymous": false,
      "inputs": [
        {
          "indexed": false,
          "internalType": "address",
          "name": "nft0",
          "type": "address"
        },
        {
          "indexed": false,
          "internalType": "address",
          "name": "nft1",
          "type": "address"
        },
        {
          "indexed": false,
          "internalType": "address",
          "name": "owner",
          "type": "address"
        },
        {
          "indexed": false,
          "internalType": "address",
          "name": "trader",
          "type": "address"
        },
        {
          "indexed": false,
          "internalType": "uint256",
          "name": "tokenId0",
          "type": "uint256"
        },
        {
          "indexed": false,
          "internalType": "uint256",
          "name": "tokenId1",
          "type": "uint256"
        }
      ],
      "name": "Trade",
      "type": "event"
    },
    {
      "inputs": [
        {
          "internalType": "address",
          "name": "nft0",
          "type": "address"
        },
        {
          "internalType": "address",
          "name": "nft1",
          "type": "address"
        },
        {
          "internalType": "uint256",
          "name": "tokenId0",
          "type": "uint256"
        },
        {
          "internalType": "uint256",
          "name": "tokenId1",
          "type": "uint256"
        },
        {
          "internalType": "address",
          "name": "recipient",
          "type": "address"
        }
      ],
      "name": "cancelExchange",
      "outputs": [],
      "stateMutability": "nonpayable",
      "type": "function"
    },
    {
      "inputs": [
        {
          "internalType": "address",
          "name": "nft0",
          "type": "address"
        },
        {
          "internalType": "address",
          "name": "nft1",
          "type": "address"
        },
        {
          "internalType": "uint256",
          "name": "tokenId0",
          "type": "uint256"
        },
        {
          "internalType": "uint256",
          "name": "tokenId1",
          "type": "uint256"
        }
      ],
      "name": "createExchange",
      "outputs": [],
      "stateMutability": "nonpayable",
      "type": "function"
    },
    {
      "inputs": [
        {
          "internalType": "address",
          "name": "trader",
          "type": "address"
        },
        {
          "internalType": "address",
          "name": "nft0",
          "type": "address"
        },
        {
          "internalType": "address",
          "name": "nft1",
          "type": "address"
        },
        {
          "internalType": "uint256",
          "name": "tokenId0",
          "type": "uint256"
        },
        {
          "internalType": "uint256",
          "name": "tokenId1",
          "type": "uint256"
        }
      ],
      "name": "createExchangeFor",
      "outputs": [],
      "stateMutability": "nonpayable",
      "type": "function"
    },
    {
      "inputs": [],
      "name": "getAllExchanges",
      "outputs": [
        {
          "components": [
            {
              "internalType": "address",
              "name": "owner",
              "type": "address"
            },
            {
              "internalType": "address",
              "name": "trader",
              "type": "address"
            },
            {
              "internalType": "address",
              "name": "nft0",
              "type": "address"
            },
            {
              "internalType": "address",
              "name": "nft1",
              "type": "address"
            },
            {
              "internalType": "uint256",
              "name": "tokenId0",
              "type": "uint256"
            },
            {
              "internalType": "uint256",
              "name": "tokenId1",
              "type": "uint256"
            }
          ],
          "internalType": "struct INFTSwap.Exchange[]",
          "name": "",
          "type": "tuple[]"
        }
      ],
      "stateMutability": "view",
      "type": "function"
    },
    {
      "inputs": [
        {
          "internalType": "address",
          "name": "nft0",
          "type": "address"
        },
        {
          "internalType": "address",
          "name": "nft1",
          "type": "address"
        },
        {
          "internalType": "uint256",
          "name": "tokenId0",
          "type": "uint256"
        },
        {
          "internalType": "uint256",
          "name": "tokenId1",
          "type": "uint256"
        }
      ],
      "name": "getExchange",
      "outputs": [
        {
          "components": [
            {
              "internalType": "address",
              "name": "owner",
              "type": "address"
            },
            {
              "internalType": "address",
              "name": "trader",
              "type": "address"
            },
            {
              "internalType": "address",
              "name": "nft0",
              "type": "address"
            },
            {
              "internalType": "address",
              "name": "nft1",
              "type": "address"
            },
            {
              "internalType": "uint256",
              "name": "tokenId0",
              "type": "uint256"
            },
            {
              "internalType": "uint256",
              "name": "tokenId1",
              "type": "uint256"
            }
          ],
          "internalType": "struct INFTSwap.Exchange",
          "name": "",
          "type": "tuple"
        }
      ],
      "stateMutability": "view",
      "type": "function"
    },
    {
      "inputs": [
        {
          "internalType": "address",
          "name": "",
          "type": "address"
        },
        {
          "internalType": "address",
          "name": "",
          "type": "address"
        },
        {
          "internalType": "uint256",
          "name": "",
          "type": "uint256"
        },
        {
          "internalType": "bytes",
          "name": "",
          "type": "bytes"
        }
      ],
      "name": "onERC721Received",
      "outputs": [
        {
          "internalType": "bytes4",
          "name": "",
          "type": "bytes4"
        }
      ],
      "stateMutability": "pure",
      "type": "function"
    },
    {
      "inputs": [
        {
          "internalType": "address",
          "name": "nft0",
          "type": "address"
        },
        {
          "internalType": "address",
          "name": "nft1",
          "type": "address"
        },
        {
          "internalType": "uint256",
          "name": "tokenId0",
          "type": "uint256"
        },
        {
          "internalType": "uint256",
          "name": "tokenId1",
          "type": "uint256"
        }
      ],
      "name": "trade",
      "outputs": [],
      "stateMutability": "nonpayable",
      "type": "function"
    },
    {
      "inputs": [
        {
          "internalType": "address",
          "name": "newOwner",
          "type": "address"
        },
        {
          "internalType": "address",
          "name": "nft0",
          "type": "address"
        },
        {
          "internalType": "address",
          "name": "nft1",
          "type": "address"
        },
        {
          "internalType": "uint256",
          "name": "tokenId0",
          "type": "uint256"
        },
        {
          "internalType": "uint256",
          "name": "tokenId1",
          "type": "uint256"
        }
      ],
      "name": "updateExchangeOwner",
      "outputs": [],
      "stateMutability": "nonpayable",
      "type": "function"
    },
    {
      "inputs": [
        {
          "internalType": "address",
          "name": "newTrader",
          "type": "address"
        },
        {
          "internalType": "address",
          "name": "nft0",
          "type": "address"
        },
        {
          "internalType": "address",
          "name": "nft1",
          "type": "address"
        },
        {
          "internalType": "uint256",
          "name": "tokenId0",
          "type": "uint256"
        },
        {
          "internalType": "uint256",
          "name": "tokenId1",
          "type": "uint256"
        }
      ],
      "name": "updateExchangeTrader",
      "outputs": [],
      "stateMutability": "nonpayable",
      "type": "function"
    }
  ],
  "transactionHash": "0x8935153f3390a821c5cd8de065faf189761fc709300abffe5082597a5b6be306",
  "args": [],
  "numDeployments": 3,
  "solcInputHash": "b2a44b99265b7b6c9dadc536579d40f9",
  "bytecode": "0x6080604052600160005534801561001557600080fd5b50612cc9806100256000396000f3fe608060405234801561001057600080fd5b50600436106100935760003560e01c8063968bd69111610066578063968bd69114610132578063c6412b311461014e578063ef40b7a91461016a578063f204212c14610186578063f6afb6d2146101a257610093565b8063150b7a021461009857806337c03fb6146100c85780634849b6c8146100e657806394e6271114610102575b600080fd5b6100b260048036038101906100ad91906126c6565b6101be565b6040516100bf9190612b46565b60405180910390f35b6100d06101d3565b6040516100dd9190612b24565b60405180910390f35b61010060048036038101906100fb919061274e565b61039e565b005b61011c6004803603810190610117919061274e565b610aaf565b6040516101299190612b61565b60405180910390f35b61014c6004803603810190610147919061274e565b610cd6565b005b6101686004803603810190610163919061264b565b610cea565b005b610184600480360381019061017f919061264b565b61110b565b005b6101a0600480360381019061019b91906127b5565b611529565b005b6101bc60048036038101906101b7919061264b565b611a8d565b005b600063150b7a0260e01b905095945050505050565b60606001805480602002602001604051908101604052809291908181526020016000905b8282101561039557838290600052602060002090600602016040518060c00160405290816000820160009054906101000a900473ffffffffffffffffffffffffffffffffffffffff1673ffffffffffffffffffffffffffffffffffffffff1673ffffffffffffffffffffffffffffffffffffffff1681526020016001820160009054906101000a900473ffffffffffffffffffffffffffffffffffffffff1673ffffffffffffffffffffffffffffffffffffffff1673ffffffffffffffffffffffffffffffffffffffff1681526020016002820160009054906101000a900473ffffffffffffffffffffffffffffffffffffffff1673ffffffffffffffffffffffffffffffffffffffff1673ffffffffffffffffffffffffffffffffffffffff1681526020016003820160009054906101000a900473ffffffffffffffffffffffffffffffffffffffff1673ffffffffffffffffffffffffffffffffffffffff1673ffffffffffffffffffffffffffffffffffffffff16815260200160048201548152602001600582015481525050815260200190600101906101f7565b50505050905090565b6000805414156103da576040517fb0dce75000000000000000000000000000000000000000000000000000000000815260040160405180910390fd5b600080819055506000600260008673ffffffffffffffffffffffffffffffffffffffff1673ffffffffffffffffffffffffffffffffffffffff168152602001908152602001600020600084815260200190815260200160002060008573ffffffffffffffffffffffffffffffffffffffff1673ffffffffffffffffffffffffffffffffffffffff16815260200190815260200160002060008381526020019081526020016000206040518060c00160405290816000820160009054906101000a900473ffffffffffffffffffffffffffffffffffffffff1673ffffffffffffffffffffffffffffffffffffffff1673ffffffffffffffffffffffffffffffffffffffff1681526020016001820160009054906101000a900473ffffffffffffffffffffffffffffffffffffffff1673ffffffffffffffffffffffffffffffffffffffff1673ffffffffffffffffffffffffffffffffffffffff1681526020016002820160009054906101000a900473ffffffffffffffffffffffffffffffffffffffff1673ffffffffffffffffffffffffffffffffffffffff1673ffffffffffffffffffffffffffffffffffffffff1681526020016003820160009054906101000a900473ffffffffffffffffffffffffffffffffffffffff1673ffffffffffffffffffffffffffffffffffffffff1673ffffffffffffffffffffffffffffffffffffffff168152602001600482015481526020016005820154815250509050600073ffffffffffffffffffffffffffffffffffffffff16816000015173ffffffffffffffffffffffffffffffffffffffff161415610665576040517ffb8254a700000000000000000000000000000000000000000000000000000000815260040160405180910390fd5b806000015173ffffffffffffffffffffffffffffffffffffffff163373ffffffffffffffffffffffffffffffffffffffff1614156106cf576040517fb082fe0900000000000000000000000000000000000000000000000000000000815260040160405180910390fd5b600073ffffffffffffffffffffffffffffffffffffffff16816020015173ffffffffffffffffffffffffffffffffffffffff16141580156107405750806020015173ffffffffffffffffffffffffffffffffffffffff163373ffffffffffffffffffffffffffffffffffffffff1614155b15610777576040517f69875c0800000000000000000000000000000000000000000000000000000000815260040160405180910390fd5b8473ffffffffffffffffffffffffffffffffffffffff1663b88d4fde3033866040518463ffffffff1660e01b81526004016107b493929190612ada565b600060405180830381600087803b1580156107ce57600080fd5b505af11580156107e2573d6000803e3d6000fd5b505050508373ffffffffffffffffffffffffffffffffffffffff1663b88d4fde338360000151856040518463ffffffff1660e01b815260040161082793929190612ada565b600060405180830381600087803b15801561084157600080fd5b505af1158015610855573d6000803e3d6000fd5b505050503373ffffffffffffffffffffffffffffffffffffffff1661087a8685611bda565b73ffffffffffffffffffffffffffffffffffffffff16141580156108d75750806000015173ffffffffffffffffffffffffffffffffffffffff166108be8584611bda565b73ffffffffffffffffffffffffffffffffffffffff1614155b1561090e576040517f8cad20db00000000000000000000000000000000000000000000000000000000815260040160405180910390fd5b600260008673ffffffffffffffffffffffffffffffffffffffff1673ffffffffffffffffffffffffffffffffffffffff168152602001908152602001600020600084815260200190815260200160002060008573ffffffffffffffffffffffffffffffffffffffff1673ffffffffffffffffffffffffffffffffffffffff1681526020019081526020016000206000838152602001908152602001600020600080820160006101000a81549073ffffffffffffffffffffffffffffffffffffffff02191690556001820160006101000a81549073ffffffffffffffffffffffffffffffffffffffff02191690556002820160006101000a81549073ffffffffffffffffffffffffffffffffffffffff02191690556003820160006101000a81549073ffffffffffffffffffffffffffffffffffffffff02191690556004820160009055600582016000905550507f9ae6c84f444be403f63f3a126829553edc7ac75f1e4911cfff892b274a21490785858360000151338787604051610a9896959493929190612a79565b60405180910390a150600160008190555050505050565b610ab76124fb565b600260008673ffffffffffffffffffffffffffffffffffffffff1673ffffffffffffffffffffffffffffffffffffffff168152602001908152602001600020600084815260200190815260200160002060008573ffffffffffffffffffffffffffffffffffffffff1673ffffffffffffffffffffffffffffffffffffffff16815260200190815260200160002060008381526020019081526020016000206040518060c00160405290816000820160009054906101000a900473ffffffffffffffffffffffffffffffffffffffff1673ffffffffffffffffffffffffffffffffffffffff1673ffffffffffffffffffffffffffffffffffffffff1681526020016001820160009054906101000a900473ffffffffffffffffffffffffffffffffffffffff1673ffffffffffffffffffffffffffffffffffffffff1673ffffffffffffffffffffffffffffffffffffffff1681526020016002820160009054906101000a900473ffffffffffffffffffffffffffffffffffffffff1673ffffffffffffffffffffffffffffffffffffffff1673ffffffffffffffffffffffffffffffffffffffff1681526020016003820160009054906101000a900473ffffffffffffffffffffffffffffffffffffffff1673ffffffffffffffffffffffffffffffffffffffff1673ffffffffffffffffffffffffffffffffffffffff168152602001600482015481526020016005820154815250509050949350505050565b610ce4600085858585611c6d565b50505050565b6000600260008673ffffffffffffffffffffffffffffffffffffffff1673ffffffffffffffffffffffffffffffffffffffff168152602001908152602001600020600084815260200190815260200160002060008573ffffffffffffffffffffffffffffffffffffffff1673ffffffffffffffffffffffffffffffffffffffff16815260200190815260200160002060008381526020019081526020016000206040518060c00160405290816000820160009054906101000a900473ffffffffffffffffffffffffffffffffffffffff1673ffffffffffffffffffffffffffffffffffffffff1673ffffffffffffffffffffffffffffffffffffffff1681526020016001820160009054906101000a900473ffffffffffffffffffffffffffffffffffffffff1673ffffffffffffffffffffffffffffffffffffffff1673ffffffffffffffffffffffffffffffffffffffff1681526020016002820160009054906101000a900473ffffffffffffffffffffffffffffffffffffffff1673ffffffffffffffffffffffffffffffffffffffff1673ffffffffffffffffffffffffffffffffffffffff1681526020016003820160009054906101000a900473ffffffffffffffffffffffffffffffffffffffff1673ffffffffffffffffffffffffffffffffffffffff1673ffffffffffffffffffffffffffffffffffffffff168152602001600482015481526020016005820154815250509050806000015173ffffffffffffffffffffffffffffffffffffffff163373ffffffffffffffffffffffffffffffffffffffff1614610f6c576040517fa2931e3100000000000000000000000000000000000000000000000000000000815260040160405180910390fd5b806000015173ffffffffffffffffffffffffffffffffffffffff168673ffffffffffffffffffffffffffffffffffffffff161415610fd6576040517fb082fe0900000000000000000000000000000000000000000000000000000000815260040160405180910390fd5b85600260008773ffffffffffffffffffffffffffffffffffffffff1673ffffffffffffffffffffffffffffffffffffffff168152602001908152602001600020600085815260200190815260200160002060008673ffffffffffffffffffffffffffffffffffffffff1673ffffffffffffffffffffffffffffffffffffffff168152602001908152602001600020600084815260200190815260200160002060010160006101000a81548173ffffffffffffffffffffffffffffffffffffffff021916908373ffffffffffffffffffffffffffffffffffffffff1602179055507fd3ef30e8cc1615032e4f5bdcde924b998bd5f3513d8643eee89b80feb4ef270f858583600001518985608001518660a001516040516110fb96959493929190612a79565b60405180910390a1505050505050565b600073ffffffffffffffffffffffffffffffffffffffff168573ffffffffffffffffffffffffffffffffffffffff161415611172576040517f4860a57e00000000000000000000000000000000000000000000000000000000815260040160405180910390fd5b6000600260008673ffffffffffffffffffffffffffffffffffffffff1673ffffffffffffffffffffffffffffffffffffffff168152602001908152602001600020600084815260200190815260200160002060008573ffffffffffffffffffffffffffffffffffffffff1673ffffffffffffffffffffffffffffffffffffffff16815260200190815260200160002060008381526020019081526020016000206040518060c00160405290816000820160009054906101000a900473ffffffffffffffffffffffffffffffffffffffff1673ffffffffffffffffffffffffffffffffffffffff1673ffffffffffffffffffffffffffffffffffffffff1681526020016001820160009054906101000a900473ffffffffffffffffffffffffffffffffffffffff1673ffffffffffffffffffffffffffffffffffffffff1673ffffffffffffffffffffffffffffffffffffffff1681526020016002820160009054906101000a900473ffffffffffffffffffffffffffffffffffffffff1673ffffffffffffffffffffffffffffffffffffffff1673ffffffffffffffffffffffffffffffffffffffff1681526020016003820160009054906101000a900473ffffffffffffffffffffffffffffffffffffffff1673ffffffffffffffffffffffffffffffffffffffff1673ffffffffffffffffffffffffffffffffffffffff168152602001600482015481526020016005820154815250509050806000015173ffffffffffffffffffffffffffffffffffffffff163373ffffffffffffffffffffffffffffffffffffffff16146113f4576040517fa2931e3100000000000000000000000000000000000000000000000000000000815260040160405180910390fd5b85600260008773ffffffffffffffffffffffffffffffffffffffff1673ffffffffffffffffffffffffffffffffffffffff168152602001908152602001600020600085815260200190815260200160002060008673ffffffffffffffffffffffffffffffffffffffff1673ffffffffffffffffffffffffffffffffffffffff168152602001908152602001600020600084815260200190815260200160002060000160006101000a81548173ffffffffffffffffffffffffffffffffffffffff021916908373ffffffffffffffffffffffffffffffffffffffff1602179055507ff532bc9efed4d0c515e792145e7d0cc9bcee920e33cfdc8cd752a1fe6de26c0b858588846020015185608001518660a0015160405161151996959493929190612a79565b60405180910390a1505050505050565b6000600260008773ffffffffffffffffffffffffffffffffffffffff1673ffffffffffffffffffffffffffffffffffffffff168152602001908152602001600020600085815260200190815260200160002060008673ffffffffffffffffffffffffffffffffffffffff1673ffffffffffffffffffffffffffffffffffffffff16815260200190815260200160002060008481526020019081526020016000206040518060c00160405290816000820160009054906101000a900473ffffffffffffffffffffffffffffffffffffffff1673ffffffffffffffffffffffffffffffffffffffff1673ffffffffffffffffffffffffffffffffffffffff1681526020016001820160009054906101000a900473ffffffffffffffffffffffffffffffffffffffff1673ffffffffffffffffffffffffffffffffffffffff1673ffffffffffffffffffffffffffffffffffffffff1681526020016002820160009054906101000a900473ffffffffffffffffffffffffffffffffffffffff1673ffffffffffffffffffffffffffffffffffffffff1673ffffffffffffffffffffffffffffffffffffffff1681526020016003820160009054906101000a900473ffffffffffffffffffffffffffffffffffffffff1673ffffffffffffffffffffffffffffffffffffffff1673ffffffffffffffffffffffffffffffffffffffff168152602001600482015481526020016005820154815250509050806000015173ffffffffffffffffffffffffffffffffffffffff163373ffffffffffffffffffffffffffffffffffffffff16146117ab576040517fa2931e3100000000000000000000000000000000000000000000000000000000815260040160405180910390fd5b600073ffffffffffffffffffffffffffffffffffffffff168273ffffffffffffffffffffffffffffffffffffffff16148061181157508573ffffffffffffffffffffffffffffffffffffffff168273ffffffffffffffffffffffffffffffffffffffff16145b8061184757508473ffffffffffffffffffffffffffffffffffffffff168273ffffffffffffffffffffffffffffffffffffffff16145b1561187e576040517f32bac1ff00000000000000000000000000000000000000000000000000000000815260040160405180910390fd5b8573ffffffffffffffffffffffffffffffffffffffff1663b88d4fde3084876040518463ffffffff1660e01b81526004016118bb93929190612ada565b600060405180830381600087803b1580156118d557600080fd5b505af11580156118e9573d6000803e3d6000fd5b50505050600260008773ffffffffffffffffffffffffffffffffffffffff1673ffffffffffffffffffffffffffffffffffffffff168152602001908152602001600020600085815260200190815260200160002060008673ffffffffffffffffffffffffffffffffffffffff1673ffffffffffffffffffffffffffffffffffffffff1681526020019081526020016000206000848152602001908152602001600020600080820160006101000a81549073ffffffffffffffffffffffffffffffffffffffff02191690556001820160006101000a81549073ffffffffffffffffffffffffffffffffffffffff02191690556002820160006101000a81549073ffffffffffffffffffffffffffffffffffffffff02191690556003820160006101000a81549073ffffffffffffffffffffffffffffffffffffffff02191690556004820160009055600582016000905550507fd51ba678dd8a8016f24bbe783bc87fe8d20ae0d63501bea37bcc8a0434ea334e868683600001518460200151868989604051611a7d9796959493929190612a0a565b60405180910390a1505050505050565b600073ffffffffffffffffffffffffffffffffffffffff168573ffffffffffffffffffffffffffffffffffffffff161415611af4576040517f4860a57e00000000000000000000000000000000000000000000000000000000815260040160405180910390fd5b3373ffffffffffffffffffffffffffffffffffffffff168573ffffffffffffffffffffffffffffffffffffffff161480611b5957508373ffffffffffffffffffffffffffffffffffffffff168573ffffffffffffffffffffffffffffffffffffffff16145b80611b8f57508273ffffffffffffffffffffffffffffffffffffffff168573ffffffffffffffffffffffffffffffffffffffff16145b15611bc6576040517fb082fe0900000000000000000000000000000000000000000000000000000000815260040160405180910390fd5b611bd38585858585611c6d565b5050505050565b60008273ffffffffffffffffffffffffffffffffffffffff16636352211e836040518263ffffffff1660e01b8152600401611c159190612b7c565b60206040518083038186803b158015611c2d57600080fd5b505afa158015611c41573d6000803e3d6000fd5b505050506040513d601f19601f82011682018060405250810190611c65919061261e565b905092915050565b6000600260008673ffffffffffffffffffffffffffffffffffffffff1673ffffffffffffffffffffffffffffffffffffffff168152602001908152602001600020600084815260200190815260200160002060008573ffffffffffffffffffffffffffffffffffffffff1673ffffffffffffffffffffffffffffffffffffffff16815260200190815260200160002060008381526020019081526020016000206040518060c00160405290816000820160009054906101000a900473ffffffffffffffffffffffffffffffffffffffff1673ffffffffffffffffffffffffffffffffffffffff1673ffffffffffffffffffffffffffffffffffffffff1681526020016001820160009054906101000a900473ffffffffffffffffffffffffffffffffffffffff1673ffffffffffffffffffffffffffffffffffffffff1673ffffffffffffffffffffffffffffffffffffffff1681526020016002820160009054906101000a900473ffffffffffffffffffffffffffffffffffffffff1673ffffffffffffffffffffffffffffffffffffffff1673ffffffffffffffffffffffffffffffffffffffff1681526020016003820160009054906101000a900473ffffffffffffffffffffffffffffffffffffffff1673ffffffffffffffffffffffffffffffffffffffff1673ffffffffffffffffffffffffffffffffffffffff1681526020016004820154815260200160058201548152505090508373ffffffffffffffffffffffffffffffffffffffff168573ffffffffffffffffffffffffffffffffffffffff1610611ec0578385611ec3565b84845b8095508196505050600073ffffffffffffffffffffffffffffffffffffffff168573ffffffffffffffffffffffffffffffffffffffff161415611f32576040517f4860a57e00000000000000000000000000000000000000000000000000000000815260040160405180910390fd5b600073ffffffffffffffffffffffffffffffffffffffff16816000015173ffffffffffffffffffffffffffffffffffffffff1614611f9c576040517f9fd9b2ed00000000000000000000000000000000000000000000000000000000815260040160405180910390fd5b3373ffffffffffffffffffffffffffffffffffffffff16611fbd8584611bda565b73ffffffffffffffffffffffffffffffffffffffff16141561200b576040517fd40edaae00000000000000000000000000000000000000000000000000000000815260040160405180910390fd5b8473ffffffffffffffffffffffffffffffffffffffff1663b88d4fde3330866040518463ffffffff1660e01b815260040161204893929190612ada565b600060405180830381600087803b15801561206257600080fd5b505af1158015612076573d6000803e3d6000fd5b5050505060016040518060c001604052803373ffffffffffffffffffffffffffffffffffffffff1681526020018873ffffffffffffffffffffffffffffffffffffffff1681526020018773ffffffffffffffffffffffffffffffffffffffff1681526020018673ffffffffffffffffffffffffffffffffffffffff16815260200185815260200184815250908060018154018082558091505060019003906000526020600020906006020160009091909190915060008201518160000160006101000a81548173ffffffffffffffffffffffffffffffffffffffff021916908373ffffffffffffffffffffffffffffffffffffffff16021790555060208201518160010160006101000a81548173ffffffffffffffffffffffffffffffffffffffff021916908373ffffffffffffffffffffffffffffffffffffffff16021790555060408201518160020160006101000a81548173ffffffffffffffffffffffffffffffffffffffff021916908373ffffffffffffffffffffffffffffffffffffffff16021790555060608201518160030160006101000a81548173ffffffffffffffffffffffffffffffffffffffff021916908373ffffffffffffffffffffffffffffffffffffffff1602179055506080820151816004015560a0820151816005015550506040518060c001604052803373ffffffffffffffffffffffffffffffffffffffff1681526020018773ffffffffffffffffffffffffffffffffffffffff1681526020018673ffffffffffffffffffffffffffffffffffffffff1681526020018573ffffffffffffffffffffffffffffffffffffffff16815260200184815260200183815250600260008773ffffffffffffffffffffffffffffffffffffffff1673ffffffffffffffffffffffffffffffffffffffff168152602001908152602001600020600085815260200190815260200160002060008673ffffffffffffffffffffffffffffffffffffffff1673ffffffffffffffffffffffffffffffffffffffff168152602001908152602001600020600084815260200190815260200160002060008201518160000160006101000a81548173ffffffffffffffffffffffffffffffffffffffff021916908373ffffffffffffffffffffffffffffffffffffffff16021790555060208201518160010160006101000a81548173ffffffffffffffffffffffffffffffffffffffff021916908373ffffffffffffffffffffffffffffffffffffffff16021790555060408201518160020160006101000a81548173ffffffffffffffffffffffffffffffffffffffff021916908373ffffffffffffffffffffffffffffffffffffffff16021790555060608201518160030160006101000a81548173ffffffffffffffffffffffffffffffffffffffff021916908373ffffffffffffffffffffffffffffffffffffffff1602179055506080820151816004015560a082015181600501559050507fb05f50f2871f347da7fab1458a6bf06e0afe6baca6ab65815836b8430ffa07ef8585338987876040516124eb96959493929190612a79565b60405180910390a1505050505050565b6040518060c00160405280600073ffffffffffffffffffffffffffffffffffffffff168152602001600073ffffffffffffffffffffffffffffffffffffffff168152602001600073ffffffffffffffffffffffffffffffffffffffff168152602001600073ffffffffffffffffffffffffffffffffffffffff16815260200160008152602001600081525090565b60008135905061259881612c65565b92915050565b6000815190506125ad81612c65565b92915050565b60008083601f8401126125c9576125c8612c4e565b5b8235905067ffffffffffffffff8111156125e6576125e5612c49565b5b60208301915083600182028301111561260257612601612c53565b5b9250929050565b60008135905061261881612c7c565b92915050565b60006020828403121561263457612633612c5d565b5b60006126428482850161259e565b91505092915050565b600080600080600060a0868803121561266757612666612c5d565b5b600061267588828901612589565b955050602061268688828901612589565b945050604061269788828901612589565b93505060606126a888828901612609565b92505060806126b988828901612609565b9150509295509295909350565b6000806000806000608086880312156126e2576126e1612c5d565b5b60006126f088828901612589565b955050602061270188828901612589565b945050604061271288828901612609565b935050606086013567ffffffffffffffff81111561273357612732612c58565b5b61273f888289016125b3565b92509250509295509295909350565b6000806000806080858703121561276857612767612c5d565b5b600061277687828801612589565b945050602061278787828801612589565b935050604061279887828801612609565b92505060606127a987828801612609565b91505092959194509250565b600080600080600060a086880312156127d1576127d0612c5d565b5b60006127df88828901612589565b95505060206127f088828901612589565b945050604061280188828901612609565b935050606061281288828901612609565b925050608061282388828901612589565b9150509295509295909350565b600061283c83836128f6565b60c08301905092915050565b61285181612be1565b82525050565b61286081612be1565b82525050565b600061287182612ba7565b61287b8185612bbf565b935061288683612b97565b8060005b838110156128b757815161289e8882612830565b97506128a983612bb2565b92505060018101905061288a565b5085935050505092915050565b6128cd81612bf3565b82525050565b60006128e0600083612bd0565b91506128eb82612c62565b600082019050919050565b60c08201600082015161290c6000850182612848565b50602082015161291f6020850182612848565b5060408201516129326040850182612848565b5060608201516129456060850182612848565b50608082015161295860808501826129ec565b5060a082015161296b60a08501826129ec565b50505050565b60c0820160008201516129876000850182612848565b50602082015161299a6020850182612848565b5060408201516129ad6040850182612848565b5060608201516129c06060850182612848565b5060808201516129d360808501826129ec565b5060a08201516129e660a08501826129ec565b50505050565b6129f581612c3f565b82525050565b612a0481612c3f565b82525050565b600060e082019050612a1f600083018a612857565b612a2c6020830189612857565b612a396040830188612857565b612a466060830187612857565b612a536080830186612857565b612a6060a08301856129fb565b612a6d60c08301846129fb565b98975050505050505050565b600060c082019050612a8e6000830189612857565b612a9b6020830188612857565b612aa86040830187612857565b612ab56060830186612857565b612ac260808301856129fb565b612acf60a08301846129fb565b979650505050505050565b6000608082019050612aef6000830186612857565b612afc6020830185612857565b612b0960408301846129fb565b8181036060830152612b1a816128d3565b9050949350505050565b60006020820190508181036000830152612b3e8184612866565b905092915050565b6000602082019050612b5b60008301846128c4565b92915050565b600060c082019050612b766000830184612971565b92915050565b6000602082019050612b9160008301846129fb565b92915050565b6000819050602082019050919050565b600081519050919050565b6000602082019050919050565b600082825260208201905092915050565b600082825260208201905092915050565b6000612bec82612c1f565b9050919050565b60007fffffffff0000000000000000000000000000000000000000000000000000000082169050919050565b600073ffffffffffffffffffffffffffffffffffffffff82169050919050565b6000819050919050565b600080fd5b600080fd5b600080fd5b600080fd5b600080fd5b50565b612c6e81612be1565b8114612c7957600080fd5b50565b612c8581612c3f565b8114612c9057600080fd5b5056fea2646970667358221220169cb7372fe197a95bd4f291d105db9c7e3d96e1defe8bd4f141cd70d49f8cee64736f6c63430008070033",
  "devdoc": {
    "kind": "dev",
    "methods": {
      "cancelExchange(address,address,uint256,uint256,address)": {
        "details": "tokenId0 and tokenId1 must be in order",
        "params": {
          "nft0": "Address of the NFT to be traded by the exchange owner",
          "nft1": "Address of the NFT requested by the exchange owner",
          "recipient": "Address of the receiver of tokenId0",
          "tokenId0": "Token id of {nft0}",
          "tokenId1": "Token id of {nft1}"
        }
      },
      "createExchange(address,address,uint256,uint256)": {
        "details": "tokenId0 and tokenId1 must be in order",
        "params": {
          "nft0": "Address of the NFT to be traded by the exchange owner",
          "nft1": "Address of the NFT requested by the exchange owner",
          "tokenId0": "Token id of {nft0} to be traded by the exchange owner",
          "tokenId1": "Token id of {nft1} requested by the exchange owner"
        }
      },
      "createExchangeFor(address,address,address,uint256,uint256)": {
        "details": "tokenId0 and tokenId1 must be in order",
        "params": {
          "nft0": "Address of the NFT to be traded by the exchange owner",
          "nft1": "Address of the NFT requested by the exchange owner",
          "tokenId0": "Token id of {nft0} to be traded by the exchange owner",
          "tokenId1": "Token id of {nft1} requested by the exchange owner",
          "trader": "Address of trader of the token requested"
        }
      },
      "getAllExchanges()": {
        "returns": {
          "_0": "Array of exchanges"
        }
      },
      "getExchange(address,address,uint256,uint256)": {
        "details": "tokenId0 and tokenId1 must be in order",
        "params": {
          "nft0": "Address of the NFT to be traded by the exchange owner",
          "nft1": "Address of the NFT requested by the exchange owner",
          "tokenId0": "Token id of {nft0} to be traded by exchange owner",
          "tokenId1": "Token id of {nft1} requested by the exchange owner"
        },
        "returns": {
          "_0": "Exchange data (see Exchange struct for data model)"
        }
      },
      "trade(address,address,uint256,uint256)": {
        "details": "tokenId0 and tokenId1 must be in order",
        "params": {
          "nft0": "Address of the NFT to be received by trader",
          "nft1": "Address of the NFT requested by the exchange owner",
          "tokenId0": "Token id of {nft0} to be received by trader",
          "tokenId1": "Token id of {nft1} requested by the exchange owner"
        }
      },
      "updateExchangeOwner(address,address,address,uint256,uint256)": {
        "details": "tokenId0 and tokenId1 must be in order",
        "params": {
          "newOwner": "Address of the new owner",
          "nft0": "Address of the NFT to be traded by the exchange owner",
          "nft1": "Address of the NFT requested by the exchange owner",
          "tokenId0": "Token id of {nft0} to be traded by the exchange owner",
          "tokenId1": "Token id of {nft1} requested by the exchange owner"
        }
      },
      "updateExchangeTrader(address,address,address,uint256,uint256)": {
        "details": "tokenId0 and tokenId1 must be in order",
        "params": {
          "newTrader": "Address of the new trader. Can be set to the zero address to allow all traders to trade",
          "nft0": "Address of the NFT to be traded by the exchange owner",
          "nft1": "Address of the NFT requested by the exchange owner",
          "tokenId0": "Token id of {nft0} to be traded by the exchange owner",
          "tokenId1": "Token id of {nft1} requested by the exchange owner"
        }
      }
    },
    "version": 1
  },
  "userdoc": {
    "events": {
      "ExchangeCancelled(address,address,address,address,address,uint256,uint256)": {
        "notice": "Emitted when an exchange is cancelled"
      },
      "ExchangeCreated(address,address,address,address,uint256,uint256)": {
        "notice": "Emitted when an exchanged is created"
      },
      "ExchangeOwnerUpdated(address,address,address,address,uint256,uint256)": {
        "notice": "Emitted when an exchanged owner is updated"
      },
      "ExchangeTraderUpdated(address,address,address,address,uint256,uint256)": {
        "notice": "Emitted when an exchanged trader is updated"
      },
      "Trade(address,address,address,address,uint256,uint256)": {
        "notice": "Emitted when a trade occurs"
      }
    },
    "kind": "user",
    "methods": {
      "cancelExchange(address,address,uint256,uint256,address)": {
        "notice": "Cancels exchange and sends tokenId0 to {to}"
      },
      "createExchange(address,address,uint256,uint256)": {
        "notice": "Creates an exchange with tokenId0 for tokenId1 that can be traded by anyone"
      },
      "createExchangeFor(address,address,address,uint256,uint256)": {
        "notice": "Creates an exchange with tokenId0 for tokenId1 that can be traded by a specific trader"
      },
      "getAllExchanges()": {
        "notice": "Retrieves all token id pairs"
      },
      "getExchange(address,address,uint256,uint256)": {
        "notice": "Retreives exchange data of token id pairs"
      },
      "trade(address,address,uint256,uint256)": {
        "notice": "Trades tokenId1 for tokenId0"
      },
      "updateExchangeOwner(address,address,address,uint256,uint256)": {
        "notice": "Updates exchange owner"
      },
      "updateExchangeTrader(address,address,address,uint256,uint256)": {
        "notice": "Updates exchange trader"
      }
    },
    "version": 1
  },
  "storageLayout": {
    "storage": [
      {
        "astId": 159,
        "contract": "contracts/NFTSwap.sol:NFTSwap",
        "label": "unlocked",
        "offset": 0,
        "slot": "0",
        "type": "t_uint256"
      },
      {
        "astId": 163,
        "contract": "contracts/NFTSwap.sol:NFTSwap",
        "label": "s_allExchanges",
        "offset": 0,
        "slot": "1",
        "type": "t_array(t_struct(Exchange)929_storage)dyn_storage"
      },
      {
        "astId": 174,
        "contract": "contracts/NFTSwap.sol:NFTSwap",
        "label": "s_exchange",
        "offset": 0,
        "slot": "2",
        "type": "t_mapping(t_address,t_mapping(t_uint256,t_mapping(t_address,t_mapping(t_uint256,t_struct(Exchange)929_storage))))"
      }
    ],
    "types": {
      "t_address": {
        "encoding": "inplace",
        "label": "address",
        "numberOfBytes": "20"
      },
      "t_array(t_struct(Exchange)929_storage)dyn_storage": {
        "base": "t_struct(Exchange)929_storage",
        "encoding": "dynamic_array",
        "label": "struct INFTSwap.Exchange[]",
        "numberOfBytes": "32"
      },
      "t_mapping(t_address,t_mapping(t_uint256,t_mapping(t_address,t_mapping(t_uint256,t_struct(Exchange)929_storage))))": {
        "encoding": "mapping",
        "key": "t_address",
        "label": "mapping(address => mapping(uint256 => mapping(address => mapping(uint256 => struct INFTSwap.Exchange))))",
        "numberOfBytes": "32",
        "value": "t_mapping(t_uint256,t_mapping(t_address,t_mapping(t_uint256,t_struct(Exchange)929_storage)))"
      },
      "t_mapping(t_address,t_mapping(t_uint256,t_struct(Exchange)929_storage))": {
        "encoding": "mapping",
        "key": "t_address",
        "label": "mapping(address => mapping(uint256 => struct INFTSwap.Exchange))",
        "numberOfBytes": "32",
        "value": "t_mapping(t_uint256,t_struct(Exchange)929_storage)"
      },
      "t_mapping(t_uint256,t_mapping(t_address,t_mapping(t_uint256,t_struct(Exchange)929_storage)))": {
        "encoding": "mapping",
        "key": "t_uint256",
        "label": "mapping(uint256 => mapping(address => mapping(uint256 => struct INFTSwap.Exchange)))",
        "numberOfBytes": "32",
        "value": "t_mapping(t_address,t_mapping(t_uint256,t_struct(Exchange)929_storage))"
      },
      "t_mapping(t_uint256,t_struct(Exchange)929_storage)": {
        "encoding": "mapping",
        "key": "t_uint256",
        "label": "mapping(uint256 => struct INFTSwap.Exchange)",
        "numberOfBytes": "32",
        "value": "t_struct(Exchange)929_storage"
      },
      "t_struct(Exchange)929_storage": {
        "encoding": "inplace",
        "label": "struct INFTSwap.Exchange",
        "members": [
          {
            "astId": 918,
            "contract": "contracts/NFTSwap.sol:NFTSwap",
            "label": "owner",
            "offset": 0,
            "slot": "0",
            "type": "t_address"
          },
          {
            "astId": 920,
            "contract": "contracts/NFTSwap.sol:NFTSwap",
            "label": "trader",
            "offset": 0,
            "slot": "1",
            "type": "t_address"
          },
          {
            "astId": 922,
            "contract": "contracts/NFTSwap.sol:NFTSwap",
            "label": "nft0",
            "offset": 0,
            "slot": "2",
            "type": "t_address"
          },
          {
            "astId": 924,
            "contract": "contracts/NFTSwap.sol:NFTSwap",
            "label": "nft1",
            "offset": 0,
            "slot": "3",
            "type": "t_address"
          },
          {
            "astId": 926,
            "contract": "contracts/NFTSwap.sol:NFTSwap",
            "label": "tokenId0",
            "offset": 0,
            "slot": "4",
            "type": "t_uint256"
          },
          {
            "astId": 928,
            "contract": "contracts/NFTSwap.sol:NFTSwap",
            "label": "tokenId1",
            "offset": 0,
            "slot": "5",
            "type": "t_uint256"
          }
        ],
        "numberOfBytes": "192"
      },
      "t_uint256": {
        "encoding": "inplace",
        "label": "uint256",
        "numberOfBytes": "32"
      }
    }
  }
}